:100000000C94C0020C9407030C94DD180C940703A5
:100010000C9407030C9407030C9407030C94070338
:100020000C9407030C9407030C942E2B0C94022CB5
:100030000C949F250C9407030C9407030C9407035E
:100040000C9407030C9407030C9407030C94070308
:100050000C9407030C94F6250C9407030C940703E7
:100060000C9407030C9407030C9407030C940703E8
:100070000C9407030C9407030C9407030C940703D8
:100080000C9407030C9407030C9407030C940703C8
:100090000C9407030C9407030C9407030C940703B8
:1000A0000C9407030C9407030C94070329001E000B
:1000B0001F002000210022002B0014001A0008005D
:1000C00015001700E10004001600070009000A00EF
:1000D000E0001D001B00060019000500E300000001
:1000E000000001512C00E2002D0027002600250011
:1000F000240023002F00130012000C0018001C0025
:10010000347233000F000E000D000B003171380007
:100110003700360010001100307800000000015157
:100120002A00287435003A003B003C003D003E00A8
:100130002B00C55C4A00005CC75CC95CE100C65C82
:10014000500052004F00CA5CE000CE5C4D005100F0
:10015000C85CC25C44000000000001002C00E2000A
:100160002E0043004200410040003F004C00490087
:100170004A00005C4B00A900847246004F00520008
:100180005000A800837148004D0051004E00AA00A5
:1001900045000000000001002A0028740000000053
:1001A000000000002A2B28000000000000000000D2
:1001B0000000000000000029000000002C1E342078
:1001C000212224342627252E362D3738271E1F209E
:1001D0002122232425263333362E37381F040506E3
:1001E0000708090A0B0C0D0E0F1011121314151627
:1001F0001718191A1B1C1D2F3130232D3504050625
:100200000708090A0B0C0D0E0F1011121314151606
:100210001718191A1B1C1D2F3130354C0000000017
:1002200000000000000000000000000000000000CE
:100230007E0F00D4FFFFFFC70000007832190A00CC
:10024000047F3F1F643214643214783C1E1E140A6B
:10025000052223252628292A2C2D2F303233353606
:10026000383A3B3D3E4042434547494A4C4E505147
:10027000535557595A5C5E6062646668696B6D6F6E
:1002800071737577797B7D7F81838587898A8C8E71
:1002900090929496989A9C9E9FA1A3A5A7A8AAAC79
:1002A000AEAFB1B3B4B6B8B9BBBCBEBFC1C2C3C5B3
:1002B000C6C7C9CACBCCCDCED0D1D2D2D3D4D5D655
:1002C000D7D7D8D9D9DADADBDBDBDCDCDCDCDCDD88
:1002D000DDDDDDDCDCDCDCDCDBDBDBDADAD9D9D86C
:1002E000D7D7D6D5D4D3D2D2D1D0CECDCCCBCAC904
:1002F000C7C6C5C3C2C1BFBEBCBBB9B8B6B4B3B133
:10030000AFAEACAAA8A7A5A3A19F9E9C9A989694CD
:1003100092908E8C8A89878583817F7D7B797775A2
:1003200073716F6D6B6968666462605E5C5A595781
:10033000555351504E4C4A4947454342403E3D3B40
:100340003A3836353332302F2D2C2A2928262523CA
:1003500022FFAA7F554000010101010101010101B5
:100360000202020202020202020303030303030366
:100370000304040404040404050505050506060633
:100380000606070707070708080808090909090AF0
:100390000A0A0B0B0B0C0C0C0D0D0D0E0E0E0F0F95
:1003A0000F10101111111212131314141515161623
:1003B0001717181819191A1A1B1B1C1D1D1E1E1F92
:1003C0002020212222232424252626272829292AE1
:1003D0002B2C2D2D2E2F3031323233343536373809
:1003E000393A3B3C3D3E3F40414243444546474805
:1003F000494A4C4D4E4F50515354555658595A5BDB
:100400005D5E5F616264656668696B6C6D6F70727A
:10041000737577787A7B7D7E8082838587888A8CE6
:100420008E8F91939596989A9C9EA0A2A3A5A7A91A
:10043000ABADAFB1B3B5B7BABCBEC0C2C4C6C9CB11
:10044000CDCFD1D4D6D8DBDDDFE2E4E7E9EBEEF0C7
:10045000F3F5F8FAFDFF0403300000000C034A0036
:100460006900720061006E0000000E034C00610024
:1004700064006E00690079000000040309040902A9
:100480005B00030100A0FA09040000010301010060
:100490000921110100012240000705810308000A1B
:1004A00009040100020300000009211101000122DA
:1004B0002200070582032000010705030320000135
:1004C00009040200010300000009211101000122BA
:1004D00032000705840320000A1201100100000009
:1004E00008091235370003010203010660FF0961A4
:1004F000A1010962150026FF0095207508810209F7
:1005000063150026FF00952075089102C0050109BA
:1005100080A101850319012AB700150126B70095AE
:100520000175108100C0050C0901A10185041901A4
:100530002AA002150126A002950175108100C005B0
:10054000010906A101050719E029E7150025019514
:1005500008750181029501750881010507190029B7
:10056000FF150026FF009506750881000508190192
:100570002905950575019102950175039101C0004A
:1005800011241FBECFEFDAE0DEBFCDBF04B603FEFD
:1005900027C080918F0490919004A0919104B09114
:1005A00092048730904BA740B04BD1F410928F0447
:1005B00010929004109291041092920414BE84B789
:1005C000877F84BF0FB6F894A895809160008861FA
:1005D00080936000109260000FBEE0E0F8E30995A0
:1005E00011E0A0E0B1E0E0EFFEE502C005900D9261
:1005F000A03EB107D9F724E0A0EEB1E001C01D9202
:10060000AF38B207E1F70E94E4270C94272F0C942F
:10061000000081E0089581E008950C940B03089593
:100620000C940F031F93CF93DF9300D000D00F9251
:10063000CDB7DEB749835A836B8330913503898107
:100640009A8131111DC06623B9F02223A9F00E94BE
:10065000FC22182F682F89819A810E94A522698126
:100660007A81812F0F900F900F900F900F90DF9154
:10067000CF911F910C9462150E94D322182FEFCFB7
:100680000E94FC2269817A81EDCFFC01262F4081F6
:1006900051816281738184810C941203CF93DF9323
:1006A000EC0160E00E944503BE01DF91CF910C9404
:1006B0001003FF920F931F93CF93DF93E82FF0E087
:1006C000E456FE4FF490C82FC695C695C695D0E067
:1006D000FE01E45DFD4F0491877010E0082E02C01A
:1006E000159507950A94E2F701701127C45EDD4F56
:1006F000FE01C491D0E002C0D595C7958A95E2F776
:10070000C170DD270115110519F081EE0E94211B32
:10071000209719F086EE0E94211B8F2D0E948F1BBF
:10072000CD2B19F086EE0E94671B012B41F081EE64
:10073000DF91CF911F910F91FF900C94671BDF9178
:10074000CF911F910F91FF900895EF92FF920F9319
:100750001F93CF93DF93EC01162F0AE08881882343
:1007600009F454C0813009F04EC08981813099F478
:100770007E0122E0E20EF11C8A810E948F1BE701BC
:100780002196812F815050F3EFE9FFE03197F1F787
:1007900000C00000F7CF823041F47E0182E0E80E15
:1007A000F11C8A810E94211BEACF833041F47E0133
:1007B000E2E0EE0EF11C8A810E94671BE0CF8430DC
:1007C00011F02196DDCF2A81229690E080E0AE01E3
:1007D0004F5F5F4F2053330B2A30310548F00197AC
:1007E00078F2EFE9FFE03197F1F700C00000F7CFB2
:1007F000089FB001099F700D1124C901860F971F32
:100800002981EA01E4CF0E945903BACFDF91CF9149
:100810001F910F91FF90EF90089560E00C94A50355
:100820008F929F92AF92BF92CF92DF92EF92FF9200
:100830000F931F936B017C0181E090E0A0E0B0E09A
:100840004C015D0104C0880C991CAA1CBB1C4A9574
:10085000D2F7B501A4014C015D0104C0880C991CBC
:10086000AA1CBB1C2A95D2F7482959296A297B2939
:1008700004C0880F991FAA1FBB1F0A95D2F78A01CF
:100880009B010C211D212E213F210417150726074E
:10089000370789F48C299D29AE29BF29BC01CD01D8
:1008A0001F910F91FF90EF90DF90CF90BF90AF908E
:1008B0009F908F90089580959095A095B0958C21EC
:1008C0009D21AE21BF21EACF0F93382F262F6091B3
:1008D0009603709197038091980390919903042F48
:1008E000432F0E9410040F910C94E3210E942D26A7
:1008F0000E944624811102C00E94EC240E946F12C3
:100900000C94E4060C94E70608950C94840481E0AA
:1009100008950C948704CF93C82F0E9485048C2FD0
:10092000CF910C94890408950E940F1E0E94930495
:100930002FEF84E39CE0215080409040E1F700C01D
:1009400000000C941A260F931F93CF93DF93EC01B2
:1009500061E00E9445038C01BE010E9402138823BE
:10096000B9F1BE01C8010E940D03882389F1BE01BF
:10097000C8010E94DB11882359F1BE01C8010E9401
:100980009A16882329F1BE01C8010E94DB1688232C
:10099000F9F0BE01C8010E94FE178823C9F0BE010C
:1009A000C8010E949510882399F08A81882339F024
:1009B00001158CE5180751F00E3D1C4579F0CE016C
:1009C000DF91CF911F910F910C9409030E94940421
:1009D00080E0DF91CF911F910F9108950E94EC2448
:1009E000F7CF90E080E008950895FC01EE0FFF1F1F
:1009F000E45CFD4F859194910895CF93DF930E941D
:100A000062150E940906EC01811520E5920708F0A5
:100A100041C0811530E4930708F0B4C0803E9105D1
:100A200018F5803C910508F09DC0883A910570F456
:100A3000853A910508F08EC081309105F9F0009754
:100A4000E9F00497D8F4D0E0C0E018C08F3B9105DE
:100A5000D0F7C85AD0E0CC0FDD1FCC5CDE4F099038
:100A6000D881C02DD4640AC08115904258F4C115B4
:100A700081E0D80718F4C83ED10528F7CE01DF91F0
:100A8000CF910895C11590E3D90708F071C0CE0148
:100A90009F706AC0811525E5920758F5811534E5E8
:100AA000930708F09EC0811542E5940750F4C115E4
:100AB00081E5D80708F469C0DC2FCC27C16FD06A64
:100AC000DDCF982F969596959E0123703327C115FB
:100AD000D34508F077C0C1E0D0E002C0CC0FDD1FE5
:100AE0002A95E2F720E2929FC0011124C82BD92B4E
:100AF00067C0C11589E5D807A8F4C11598E5D907DD
:100B000008F074C0C11526E5D20708F09CCF8C2FE1
:100B10000E94A006C82FD0E0DC2FCC27CC27DF71A5
:100B2000D062ACCFC1153AE5D30708F464C0CE015A
:100B300090568115904208F086CF8D2F8F710E94BC
:100B4000A00690E0982F882788279F719C012C2B66
:100B5000E901E6CFC55AD0E0CE59DE4FC881D0E0DA
:100B6000D0648CCF805C91090E94F504EC0186CFA3
:100B7000CE019927D3FF03C0EC01D86C7FCFEC01E5
:100B8000D06C7CCFDF70D06A79CFCE01E4E096954F
:100B90008795EA95E1F783702C2F2695269523708B
:100BA00090E2299F90011124382B8C2F8370C1E093
:100BB000D0E002C0CC0FDD1F8A95E2F7C22BD32B09
:100BC000DC685CCFC1E0D0E002C0CC0FDD1F2A950D
:100BD000E2F730E2939FC0011124C82BD92BDA68C9
:100BE0004DCFD82FCC27C46FD06A48CFDC2FCC276D
:100BF000C06FD06A43CF8C2F8F700E94A00634E064
:100C0000D695C7953A95E1F7CF709C2FEC01D06946
:100C100035CF82389105B1F1B0F48133910509F4F3
:100C200075C048F48932910509F469C08A3291058A
:100C300009F473C008958533910509F459C08933C7
:100C4000910501F10895833E9105A9F138F4803EA4
:100C50009105F9F0823E910549F10895863E91058E
:100C6000A9F1873E9105C9F1843E910519F52091BE
:100C7000810421FF1FC08091800484FD14C087EE91
:100C800090E00895209180042370A1F080EE90E020
:100C900008952091800420FD47C03091810430FFE9
:100CA00009C024FF44C090E080E004C0209180048B
:100CB00022FDF7CF08952091800422FD3BC03091A2
:100CC000810430FDE3CF24FFF5CFEDCF20918004E8
:100CD00023FFF0CF24FDE7CFD2CF2091800423FD66
:100CE0002CC03091810431FFEECF84EE90E0089566
:100CF0002091800425FFDECF89E290E008952091C5
:100D0000800425FFD7CF85E390E0089520918004EB
:100D100026FFD0CF8AE290E008952091800426FF3C
:100D2000C9CF81E390E0089589E390E0089583EED0
:100D300090E0089582EE90E0089586EE90E00895A8
:100D40009091800492FF06C0282F28712830F9F472
:100D5000877F846093FF06C0282F28712831F1F423
:100D6000877E84612091810420FF06C0382F38716E
:100D70003830D9F4877F816021FF06C0282F287181
:100D80002831D1F4877E816194FD877E0895282FD4
:100D900024712430F9F68B7F8860DCCF282F2471F2
:100DA000243101F78B7E8861DDCF382F31713130EE
:100DB00019F78E7F8860E0CF282F2171213121F72C
:100DC0008E7E8861E1CF08950C94E30608950C941B
:100DD000E606E82FF0E0EE53FC4F80810895089579
:100DE00080EA8A95F1F7089508950E94500880914D
:100DF00004018091040195E0811190E09093CD036E
:100E000085E0891B8093CC03ABE6B1E061E070E044
:100E10008D91E82FE295EF70F0E041A18F709B017A
:100E200001C0220F8A95EAF7922F9095942391A3FF
:100E300082A1822B82A381E0A037B80749F7A5E6FB
:100E4000B1E061E070E08D91E82FE295EF70F0E0A5
:100E500041A18F709B0101C0220F8A95EAF7922F62
:100E60009095942391A382A1822B82A381E0AB363B
:100E7000B80749F7E8EBF3E0A2ECB3E082EC93E0CB
:100E800011921D928E179F07D9F785E00E94FB07EC
:100E90000E9476040C9465080E9432088823F9F0B9
:100EA0008091CC0390E08E539C4F0E949508811155
:100EB00013C08091E0018F5F8093E001863050F095
:100EC000E091CC03F0E0EE53FC4F108211821282CD
:100ED000138214820C9482041092E001FBCF809163
:100EE000CD0390E08E539C4F0E94BC080C94F406F6
:100EF0008F929F92AF92BF92CF92DF92EF92FF922A
:100F00000F931F93CF93DF938BE6A82E81E0B82E2B
:100F100008EB13E0912CCC24C394D12CF5018191E2
:100F20005F01C82FC295CF70D0E099A18F70760174
:100F300001C0EE0C8A95EAF7892F8E2989A38AA130
:100F40008E2C809488218AA30E94F006E5E6F1E0C9
:100F500050E040E020E03191A32FA295AF70B0E0C7
:100F600090968C9190E03F7002C0959587953A9548
:100F7000E2F780FD3CC08C2D042E01C0880F0A943E
:100F8000EAF7282B4F5F5F4F4630510521F789A1C3
:100F9000882289A28AA1E82AEAA2F801808128177A
:100FA00041F1208381E0982A0F5F1F4FF0E7AF16D1
:100FB000F1E0BF0609F0B2CF6091CD0370E06E534F
:100FC0007C4F292D45E088EB93E00E94FC070E94AE
:100FD0004C07892DDF91CF911F910F91FF90EF90DA
:100FE000DF90CF90BF90AF909F908F90089580E05A
:100FF000C8CF80E0D8CF0895FF920F931F93CF936F
:10100000DF93F82E092F162FD72FC42F222349F054
:1010100081E08093E3010E94CF259093E2018093C9
:10102000E1018091E3018823A1F08091E101909199
:10103000E2010E94E725069760F0EF2DF02FA12F27
:10104000BD2FCE0FDF2FD11DEC17FD0741F41092FD
:10105000E301DF91CF911F910F91FF90089581914E
:101060008D93F2CF8091E401811111C08091D8005D
:1010700080618093D8008AE18A95F1F700C0909151
:10108000D900892F817090FF82E08093E40181E094
:101090009091E401913009F080E008950C943208B9
:1010A0000E944E0880930401809104016CE1882322
:1010B00049F080E00E9468090E943208882321F0EC
:1010C0000C946C088CE1F6CF08950E9432088111CF
:1010D00002C00C947208089562E070E085E091E02F
:1010E0000C948A1862E070E085E091E00C9493180B
:1010F0000E94540E882361F08DEE91E00E945A0EFA
:1011000081E090E00E946C19892B11F40C94570E29
:1011100008958091EC01883039F460E08DEE91E023
:101120000E94720F1092EC010895CF93DF93D82F95
:10113000C92F0E94780890E080E00E946C19009707
:10114000C9F4ED2FFC2FDC01A951BE4F2C91219346
:10115000019685309105B9F70E940411882341F06A
:101160000E940C118093E60181E0DF91CF910895F8
:1011700080E0F8CF80E0F9CFCF93DF93D82FC92F4D
:101180000E948908ED2FFC2F90E080E02191DC0186
:10119000A951BE4F2C93019685309105B9F78091E6
:1011A000E601DF91CF910C941012AF92BF92CF92D3
:1011B000DF92FF920F931F93CF93DF93362F472F2A
:1011C000E82FF0E0EA5AFC4F71110DC06491762FC0
:1011D000862FDF91CF911F910F91FF90DF90CF90DD
:1011E000BF90AF900895C72FD0E02491F22E022F28
:1011F00010E056E0659FC0011124EFEFF0E0BF0161
:101200000E94DE2D832F90E0880F991F35E5369FD1
:10121000D001379FB00D11248A1B9B0B982F990F7B
:10122000980F6F01CC1ADD0AC09ED001C19EB00D8F
:10123000D09EB00D11248B2F949FA0011124452F17
:1012400055276F01C41AD50AC09EA001C19E500D3A
:10125000D09E500D11245F01A91AB108AC9E600107
:10126000AD9ED00CBC9ED00C1124CD2CDD24EC19ED
:10127000FD09E09FE001E19FD00DF09FD00D11240A
:10128000ED2F62307105A1F048F46115710569F028
:101290006130710589F0EB2F852F07C0643071052F
:1012A00071F088F066307105B1F76E2F722F91CF13
:1012B000E22F2B2F8D2FF9CFE22F252FF6CFEB2FFB
:1012C000822F2D2FF2CF2B2F8F2DE52FEECF0895CC
:1012D000E7E1F1E0808361830895CF93DF93762F78
:1012E000E901682F842F0E94D508798368838A8357
:1012F000DF91CF9108958091CE03982F9E7F29F49E
:10130000817082608093CE0308958635E8F3817002
:101310008465F8CF88E090E00C94C02ECF92DF92E5
:10132000EF92FF926B017C010E947B09B701A6013D
:1013300088E090E0FF90EF90DF90CF900C94DE2E4D
:101340006091CE037091CF038091D0039091D1032F
:101350000C948E09EEECF3E083E0808311828FEF32
:10136000828383831482AAE1B3E012968C91129750
:10137000836012968C9360817181828193810C9439
:101380008E098091CE0380FF02C08695089580E08B
:1013900008958091D203833018F48F5F8093D20335
:1013A0006091CE037091CF038091D0039091D103CF
:1013B0000C948E098091D203882319F08150809378
:1013C000D2036091CE037091CF038091D0039091AE
:1013D000D1030C948E098091D20308958093D20397
:1013E000662351F06091CE037091CF038091D003BA
:1013F0009091D1030C948E09089560E00C94EE094D
:101400008091CF0308958091D00308958091D103F6
:10141000089570E00C947F12609118018091CE03C2
:1014200080FF0AC08091170123E0829FC001112430
:101430008D529C4F0C94090A8091190190911A01C8
:1014400023E0829FF0011124ED52FC4F891750F7E1
:101450001182108212828F5F3396F8CF9091CE0363
:1014600090FF14C09091190120911A0133E0939FCD
:10147000F0011124ED52FC4F921710F00C940C0A5D
:101480008183608342839F5F3396F6CF0895CF9325
:10149000DF9300D00F92CDB7DEB79091CE0390FFCF
:1014A0000AC09E012F5F3F4F0E946D094B816981E9
:1014B0008A810E942E0A0F900F900F90DF91CF919A
:1014C0000895CF93DF93EC01EC81F0E0EF5AFD4FEC
:1014D0004491EEECF3E0628181810E94470A8C81A5
:1014E0008F5F8C83DF91CF910895CF93DF93EC01D1
:1014F000EEECF3E0438162818C810E94470A8C818B
:101500008F5F8C83DF91CF9108950F931F93CF93BB
:10151000DF9300D00F92CDB7DEB78C018091F5013B
:1015200081110AC09E012F5F3F4F4FEF6FEF0E9466
:101530006D098A818093F501F8016481613069F059
:101540008091F50140E0662361F040E0623011F4E3
:101550004091F50180E060E004C06091F50140E059
:1015600080E00E942E0AF801848190E0019663E0F9
:1015700070E00E94F22D84830F900F900F90DF9106
:10158000CF911F910F910895AF92BF92CF92DF92AA
:10159000EF92FF920F931F93CF93DF9300D00F92A0
:1015A000CDB7DEB7182FF62E042FE22E9091CE0382
:1015B00090FF3AC0E92FE695AE2FB0E0AB58BE4F92
:1015C0008C9180931A039E7F9230E1F59E012F5FEC
:1015D0003F4F812F0E946D094B8169818A810E9452
:1015E0002E0A8091CF03811308C08091D0038F1100
:1015F00004C08091D103801729F080911C03826080
:1016000080931C031093CF03F092D0030093D10377
:10161000EE2051F06091CE037091CF038091D00302
:101620009091D1030E948E090F900F900F90DF913F
:10163000CF911F910F91FF90EF90DF90CF90BF90CF
:10164000AF900895823019F40091D103CACF86304B
:1016500019F41091CF03C5CF8930D9F3893109F638
:10166000E9518E2F8170D82EE695F0E0EF5AFC4FAD
:10167000A590B490C12CBB2460911B01C61618F034
:101680000E940C0AAECF2C2D30E0A29EC001A39E7A
:10169000900DB29E900D112470E00E94DE2D812FDE
:1016A000D11013C0860F40911901420F532F511DC5
:1016B0009A01220F331F240F351F2D523C4F402F0C
:1016C0006F2D0E946D09C394D7CF861BECCFEEEC33
:1016D000F3E09181282F438162818AE0890F0C9485
:1016E000C40A81E00C94670BEEECF3E09181282FA3
:1016F0004381628186EF890F0C94C40A81E00C94C7
:10170000740BEEECF3E0628121E1620F08F46FEFFD
:10171000282F438181810C94C40A81E00C94810BB1
:10172000EEECF3E0628121E1621B08F460E0282F17
:10173000438181810C94C40A81E00C94900BEEECFF
:10174000F3E0438121E1420F08F44FEF282F62813B
:1017500081810C94C40A81E00C949F0BEEECF3E0C1
:10176000438121E1421B08F440E0282F62818181FE
:101770000C94C40A81E00C94AE0B20E00C94C40AD3
:10178000EF92FF921F93CF93DF93EC0110E0EE24D2
:10179000EA94F12C60911B01161770F00E940C0A5C
:1017A0009A818C8190FF27C08F5F8C83DF91CF91CE
:1017B0001F91FF90EF90089520911901422F410F42
:1017C0005527551FCA019A01220F331F280F391FB1
:1017D0002D523C4F70E0C7010E94F22D962F8C8154
:1017E0004091D1036091D003199F800D11240E9474
:1017F0006D091F5FCFCF8150D8CF8F929F92AF924C
:10180000BF92CF92DF92EF92FF920F931F93CF93ED
:10181000DF93EC018A81BB24BA9480FD02C0BB2413
:10182000B3948C8181110AC081E0B8122AC08091E2
:101830001B0181508093F70181E08C83A12C48E348
:10184000942E80911B01A816F8F00E940C0A80913A
:10185000F70191E0B91261C081115AC080911B015A
:1018600081508093F7011C82DF91CF911F910F91DE
:10187000FF90EF90DF90CF90BF90AF909F908F90B0
:1018800008951092F701D8CF00911901CA2CD12CDC
:101890000C0D1D2D111DC801880F991F080F191F50
:1018A0000D521C4FF80111821082128234E0E32E97
:1018B000F12C812C8091F701880D89331CF1692D61
:1018C0000E94D02D892F082E000C990BC816D9061E
:1018D00091F48091D1038E9DA0018F9D500D112414
:1018E000559547955595479598016091D0038091FE
:1018F000CF030E946D098B0CF1E0EF1AF108D1F6CD
:10190000A3949FCF87FFDFCF90911B01890FDBCF7F
:1019100081508093F701BC82A7CF90E0019660913F
:101920001B0170E00E94F22D8093F7018C839CCF05
:10193000EF92FF920F931F93CF93DF93EC018C8173
:10194000811109C081E08C831092F60192E090939E
:101950001601809315018091190190911A0123E0DD
:10196000829FF0011124ED52FC4F891768F110E0BD
:1019700003E060911B01161768F10E940C0A809128
:1019800015012091F601280F2093F6019091160180
:10199000980F90931601191654F4022E000C330B75
:1019A00040911B014150550B2417350734F08195A8
:1019B00080931501813009F41C82DF91CF911F9132
:1019C0000F91FF90EF9008951182108212828F5F25
:1019D0003396CBCFE12EF12C70E0C7010E94F22D9F
:1019E00020911901820F482F50E02091F601022E1C
:1019F000000C330BE216F306BCF020911601022E08
:101A0000000C330B2E153F057CF0809F90011124B4
:101A10002D523C4F4091D1036091D0038091CF0370
:101A20000E946D091F5FA5CFFA01EE0FFF1FE40FA3
:101A3000F51FED52FC4F118210821282F3CF0F93EB
:101A40001F93CF93DF938C01FC01848195810196D4
:101A50008170992795838483C0E0D5E580911B012F
:101A6000C81730F0DF91CF911F910F910C940C0AA1
:101A700020911901422F4C0F5527551FCA019A0179
:101A8000220F331F280F391F2D523C4F8C2F869564
:101A9000F80144815581840F952F911D81704091EB
:101AA000D1036091D0038D9F802D11240E946D0978
:101AB000CF5FD4CF0F931F93CF93DF93EC0110E050
:101AC00000E090911B019017110609F06CF40E9440
:101AD0000C0A8C8190E00196817099278C83DF91AC
:101AE000CF911F910F91089520911901A801420FE4
:101AF000511D9A01220F331F240F351F2D523C4FC9
:101B00004C816091D0038091CF0396959017110678
:101B100051F04CF0442349F04091D1030E946D09EB
:101B20000F5F1F4FCECF4423B9F340E0F7CF8F9222
:101B30009F92AF92BF92CF92DF92EF92FF920F935C
:101B40001F93CF93DF93FC01B280948081E0848364
:101B500000E015E05BE4A52E88248394EE24EA944B
:101B6000F12C7BE4C72ED12C80911B01081770F05B
:101B7000DF91CF911F910F91FF90EF90DF90CF9069
:101B8000BF90AF909F908F900C940C0AC02FD0E024
:101B90001C9FF0011D9FF00D1124E550FE4F911088
:101BA0001CC01382128220911901CE01820F911D57
:101BB0009C01220F331F280F391F2D523C4F1C9FB1
:101BC000F0011D9FF00D1124E550FE4F428161810F
:101BD00080810E946D090F5FC7CF2381222379F195
:101BE0002150238334818A2D821B311101C0822F21
:101BF0001C9FF0011D9FF00D1124E550FE4F9091A8
:101C0000D103899FC0011124B6010E94DE2D628399
:101C1000211104C0332311F01482A38222E02B157A
:101C200010F21C9FF0011D9FF00D1124E550FE4F96
:101C30008091CF0380838091D0038183B4CF0E94B1
:101C40009B2E823091400CF0AECF82E08B1530F5A8
:101C50000E949B2EB7010E94F22D1C9FF0011D9F38
:101C6000F00D1124E550FE4F808322E02B15C8F4BF
:101C70000E949B2E2091D0032695622F70E00E9437
:101C8000F22D280F1C9FF0011D9FF00D1124E5502F
:101C9000FE4F21831282A382848285CF8091CF035D
:101CA000DCCF2091D003EECF80911C0308951092D9
:101CB0001C03089525E0EEECF3E0DC0101900D92A9
:101CC0002A95E1F720911A0330911B0340911C03E0
:101CD000FC012583368347830895EAE1F3E011820E
:101CE0008281846082830895EEECF3E080818E7FB0
:101CF00080830E946D0EEAE1F3E08281816082833D
:101D00002FEF80E792E0215080409040E1F700C043
:101D100000000C940C0AEEECF3E080818E7F80834F
:101D200060817181828193810E948E090E946D0E73
:101D3000EAE1F3E08281816082832FEF80E792E025
:101D4000215080409040E1F700C000000C940C0A44
:101D50006091CE03669570E04BE050E08CE191E03D
:101D60000E94AB2E892B19F481E080931B030E9403
:101D7000CF25909314038093130380911C038460F8
:101D800080931C0308959091CE0390FF3AC0917008
:101D900081112DC092609093CE0380911C038160CD
:101DA00080931C03662351F06091CE037091CF03A2
:101DB0008091D0039091D1030E948E096091CE034F
:101DC000669570E04BE050E08CE191E00E94AB2E14
:101DD000892BA1F00E946D0E81E080931603409143
:101DE000D1036091D0038091CF030C94BD0B8B3253
:101DF00010F09465D0CF880F982BCDCF0E94A80EFD
:101E0000EBCF0895682F9091CE03969581E0890FCE
:101E10008B3208F081E00C94C30E81E00C94020F29
:101E2000682F9091CE0396958FEF890F09F48AE27F
:101E30000C94C30E81E00C94100F61E00C94C30E5F
:101E4000EEECF3E080818160808386950C941D0F19
:101E50008091CE0380FD0C948B0E0C94200F60E0DB
:101E60000C94C30E80911903811133C00E94462443
:101E7000811104C00E94EC240E94AA090E948A09D0
:101E80006093CE037093CF038093D0039093D103DC
:101E900080911C03836080931C036E7F61F40E9419
:101EA000AA090E948A096093CE037093CF0380939E
:101EB000D0039093D1030E947B090E946D0E809104
:101EC000CE0380FF03C086950E942F0F81E0809390
:101ED00019030895EEECF3E080818160808386959C
:101EE0000C942F0F1F93CF93DF93EC01162F8F814C
:101EF00080FF0CC0888180FF24C08091CE03816068
:101F00008093CE03888186950E94C30E8F8181FFC6
:101F100006C0212F4B816A8189810E94C40A8F816A
:101F200082FF05C08E81882379F00E94A80E8F81E0
:101F300083FF03C081E080931603DF91CF911F914F
:101F400008950E94740EE2CF0E946D0EF0CFEF92C2
:101F5000FF920F931F93CF93DF9380911B038823EE
:101F600009F468C080911A03E091CE03E695E81B5E
:101F7000E0931503823009F064C0F0E0E35BFD4FAD
:101F8000E491CE2FD0E001E61AE080911603882379
:101F900089F0109216030E94CF259E01209530955E
:101FA000820F931F909314038093130310921803CE
:101FB0001092170380911303909114030E94E72558
:101FC0008C179D07B8F18091FA018823B1F0109227
:101FD000FA018091F8019091F9010E94E725803380
:101FE000954758F00E94CF259093F9018093F8010E
:101FF00080911C03886080931C03E0901703F0908D
:102000001803E0911303F0911403CE0FDF1FD09358
:102010001403C093130383E193E0F80109958091C1
:10202000170390911803892B29F4EF2819F081E008
:102030008093FA01DF91CF911F910F91FF90EF9064
:102040000895863049F4F0E0E65BFD4FE491CE2F31
:10205000D0E005E71AE099CF893051F4E695F0E039
:10206000E95BFD4FE491CE2FD0E000EC1BE08DCF7B
:102070008F3051F4E695F0E0EC5BFD4FE491CE2F0C
:10208000D0E00DEF1BE081CF853149F4F0E0EF5B4C
:10209000FD4FE491CE2FD0E008E91CE076CFC8EEEA
:1020A000D3E00FE11DE0883109F46FCF833239F4BA
:1020B000EFE3F2E0C591D49105E81AE066CFC4EFF2
:1020C000D1E00AE51DE0843209F45FCFC0EDD7E02E
:1020D00007E619E0853209F058CF8E2F63E00E94A1
:1020E000C42DE92FF0E0E45CFD4FE491CE2FD0E069
:1020F00007E91DE04ACFFA01811101C0FB010994F3
:10210000CF93DF93C82FD62F0E94C1098C1740F0C0
:102110000E94C1098D1720F4DF91CF910C940D0F0F
:102120008C2FDF91CF910C941D0F1F93CF93DF93D2
:10213000EC01FB011281111110C00E9491238272E7
:10214000FE01E25CFC45E431F10508F05BC0E75DAF
:10215000F04D0C94282E0E94280F812FDF91CF91F3
:102160001F9108954AE15FE06DE07FE00E947B10DF
:10217000F4CF4DE05FE06AE17FE0F8CF4EE75BE04F
:1021800061E77BE0F3CF41E75BE06EE77BE0EECF1A
:102190004CE95BE06DE87BE0E9CF4DE85BE06CE9A2
:1021A0007BE0E4CF4AEB5BE06BEA7BE0DFCF4BEA1E
:1021B0005BE06AEB7BE0DACF4AED59E069EC79E06D
:1021C000D5CF49EC59E06AED79E0D0CF81E00E94AB
:1021D0001D0FC3CF65E082E00E948010BECF68E093
:1021E00086E0FACF6EE089E0F7CF64E18FE0F4CFCC
:1021F00067E185E1F1CF88E1EACF62E289E1ECCFE6
:1022000083E2E5CF11E0A9CF80917B04817008952E
:1022100080917B040C94782480917B04869586952C
:10222000869508950E944624811102C00E94EC24E4
:102230000E94742480937B04803320F0877088622E
:1022400080937B0490917B04892F817090FF04C060
:10225000892F8695869586950C94101280917B0423
:10226000982F969596959695953040F49F5F990F87
:10227000990F990F8770892B80937B0480917B0441
:10228000816080937B040E94782480917B048695F2
:10229000869586950C94101280917B04982F987FD8
:1022A00079F0885080937B04887F91E009F490E076
:1022B00080917B0490FB80F980937B040E947824BA
:1022C00080917B048695869586950C94101280915A
:1022D0007B0480FD13C0816080937B04813019F4FE
:1022E00089E080937B0480917B040E947824809114
:1022F0007B048695869586950C941012089580919E
:102300007B0480FF08C08E7F80937B040E9478242A
:1023100080E00C941012089580917B0480FD0C9451
:102320007F110C94671190917B04892F8695869577
:1023300086958F5F8F7197708630D8F4880F880FDD
:10234000880F892B80937B0480917B04887F91E0A8
:1023500009F490E080917B0490FB80F980937B04EA
:102360000E94782480917B048695869586950C94AE
:10237000101290937B04E8CF863008F085E09091AE
:102380007B049770282F220F220F220F922B9093FD
:102390007B04987F21E009F420E090917B0420FBEE
:1023A00090F990937B040C9410120E94BC118091C0
:1023B0007B040C9478249C01FB018281882349F1E1
:1023C0002D3BFCE53F07C9F040F42B3BECE53E0715
:1023D00069F02C3B3C4579F008952F3B9CE539078B
:1023E00091F070F0203C3C4589F0089585E00E9412
:1023F000D51180E0089580E0FACF0E944C11F9CF0A
:102400000E942E11F6CF0E948C11F3CF0E949311DF
:10241000F0CF81E00895269A2E9808952E98089579
:10242000CF92DF92EF92FF92CF93C82F863040F584
:10243000811127C0809180008F7D809380000E9451
:102440000E122C2F30E0AFEFBFEF0E94352E25E0AB
:1024500030E040E050E00E94062EC9012C3764E1D4
:102460003607A8F469E070E00E94DE2D70938B00BF
:1024700060938A00CF91FF90EF90DF90CF90089506
:10248000C5E080918000806280938000DACF2A507E
:10249000374D4F4F5F4F942F832F722F662725EFB5
:1024A00038E241E050E00E94062E69017A01CA013B
:1024B000B9010E94B42D9B01AC01C701B6010E9475
:1024C000B42D672F782F892F99276115710521E089
:1024D0008207910559F66FEF7FEFC8CF08950E94EC
:1024E0000B1282E28093800089E1809381008FEF5C
:1024F0009FEF90938700809386000C941211269A88
:1025000045B14F7B55B15064EFB7F8949B01220F52
:10251000331F260F371F280F391F2817390741F49B
:10252000EFBF8FE594E00197F1F700C00000089538
:10253000DC016D91CD0178E055B9000000C067FF66
:1025400045B9660F000000C000C000C045B900C01A
:102550007A9591F7E2CF82E290E00E94B82E803225
:1025600089F483E290E00E94B82E873059F484E227
:1025700090E00E94B82E91E0893009F090E0892F18
:102580008170089580E0FCCFCF93C82F6FEF811149
:1025900060E282E290E00E94CC2E6FEFC11167E012
:1025A00083E290E00E94CC2E6FEFC11169E084E2DB
:1025B00090E0CF910C94CC2E80E00E94C4120C9439
:1025C0004024089585E290E00E94B82E682F70E0C4
:1025D00090E080E0089585E290E00C94CC2E0E947B
:1025E000E1120E94AB1281110CC060E070E0CB01DF
:1025F0000E94EB120E94DA140E94C61581E00C942E
:10260000C4120895CF93FB01C281CC2309F19C0130
:1026100022513F452031310520F582510E94D615C7
:10262000C0E08C2FCF91089581E00E94092243E001
:1026300062E081E00E946404F3CF81E00E942A22DC
:1026400043E062E081E00E946404EBCF82E0F6CFD9
:102650008031FFE59F0789F381319F45B9F3C1E0E0
:10266000E0CF8031EFE59E07F9F281319F45C9F651
:1026700082E0DBCF2FEFFC0120830895CF93DF931F
:10268000EC018881893029F08A3079F0DF91CF918F
:1026900008950E940C112FEF829FC001112465E064
:1026A00070E00E94DE2D6983F1CF1982EFCFFC012B
:1026B0002081293061F48181F5E08F9FC0011124D0
:1026C0006FEF70E00E94DE2D862F0C94BC110895F0
:1026D000CF93DF93EC0188818138A9F028F480380A
:1026E00071F0DF91CF910895823881F08338C9F776
:1026F0000E94000A89830E94030A8A83F2CF0E9403
:10270000060A8983EECF0E94C109FBCF0E94EB0924
:10271000F8CFCF93DF93EC0188818138E1F028F482
:10272000803869F0DF91CF910895823811F18338B4
:10273000C9F70E94060A482F6A81898108C0D98199
:102740000E94030AC82F0E94000A4D2F6C2FDF91B0
:10275000CF910C94BD0B89810E942F0F898181112B
:1027600004C0DF91CF910C94740EDF91CF910C9443
:102770006A0F8981DF91CF910C94FD09CF92DF928E
:10278000FF920F931F93CF93DF93EC01F62EDC01A2
:10279000ED918D01E150E33108F0C9C0F0E0E35C58
:1027A000F04D0C94282E198289E08A836F2DCE017A
:1027B000DF91CF911F910F91FF90DF90CF900C94FC
:1027C000D8268981823069F0833071F08130D9F464
:1027D0000E94DB250E942E2E6A837B838C839D833F
:1027E000E5CF0E94E212F6CF6E01B2E0CB0ED11C13
:1027F00010E0812F0E94E906F60181936F011F5FAF
:102800001A30B9F7D3CF6F2DCE010E943A13CECF35
:1028100089818230C1F76A817B818C819D810E9490
:102820002E2E0E94EB12C2CF4B816A8189810E94B9
:10283000AC149827892798279D838C83B7CF2C8148
:102840003D813227232732274B816A8189810E946B
:10285000C514ACCF0E94DA14A9CFCD010E94571342
:10286000C8010E948913A2CFCD010E943E13C80166
:102870000E9468139BCF0E9408110E94A00996CF66
:102880000E946F15898392CF0E947115982789271E
:1028900098279A8389838ACF6B8170E089819A8196
:1028A000AE014C5F5F4F9827892798270E947415C7
:1028B0007DCF6B8170E089819A81AE014C5F5F4F63
:1028C0009827892798270E949B1570CF0E94C615CC
:1028D0006DCF0E949A14D6CF6B8170E089819A8166
:1028E000AE014C5F5F4F9827892798270E941215E9
:1028F0005DCF6B8170E089819A81AE014C5F5F4F43
:102900009827892798270E94381550CF0E94DC12FB
:102910004DCF0E94D826FFEF21EE84E0F1502040F9
:102920008040E1F700C000000E941A263FCF8FEFE1
:1029300088833CCF84E0089550E0440F551F9CE00D
:10294000699F400D511D112498E7899F400D511D2D
:102950001124CA01839608950F931F93CF93DF9399
:102960000E949C148C010E94B82EC82FD0E0DC2F4E
:10297000CC27C80101960E94B82E9E01282BC901C0
:10298000DF91CF911F910F9108950F931F93CF93D4
:10299000DF93122F032F0E949C14EC01602F0E94E2
:1029A000CC2E612FCE010196DF91CF911F910F9117
:1029B0000C94CC2EAF92BF92CF92DF92EF92FF9207
:1029C0001F93CF93DF938CEAC82E80E0D82ED0E0FF
:1029D0007601C0E014C0F50125913491412F6C2F90
:1029E0008D2F0E94C51482E0A80EB11C1F5F163007
:1029F00091F78CE0E80EF11CCF5FCA3019F0570157
:102A000010E0E9CFDF5F88E7C80ED11CD43001F7B2
:102A1000DF91CF911F91FF90EF90DF90CF90BF900B
:102A2000AF900895EF92FF920F931F93CF93DF9390
:102A3000EC018A017C01E60EF71ECE018396CE15CD
:102A4000DF0539F4DF91CF911F910F91FF90EF9047
:102A50000895C03E21E0D20740F40E94B82EF8014C
:102A600080830F5F1F4F2196E8CFF8011082F9CFC6
:102A7000CF92DF92EF92FF920F931F93CF93DF934A
:102A80007C016A018C01060F171FEC01CE018396B1
:102A9000C017D10749F4DF91CF911F910F91FF909B
:102AA000EF90DF90CF900895C03E21E0D20740F430
:102AB000FE01EE19FF09EC0DFD1D60810E94CC2E78
:102AC0002196E4CF462F843038F47A3028F46630EB
:102AD00018F4672F0C94AC1490E080E0089580E126
:102AE00008958DEF91E00895EF92FF920F931F9359
:102AF000CF93DF93EC018A017C01E60EF71ECE0135
:102B00008D5F9D4FCE15DF0539F4DF91CF911F9179
:102B10000F91FF90EF900895CD3F21E0D20740F450
:102B20000E94B82EF80180830F5F1F4F2196E7CFD8
:102B3000F8011082F9CFCF92DF92EF92FF920F93BC
:102B40001F93CF93DF937C016A018C01060F171F3F
:102B5000EC01CE018D5F9D4FC017D10749F4DF9185
:102B6000CF911F910F91FF90EF90DF90CF9008953C
:102B7000CD3F21E0D20740F4FE01EE19FF09EC0D34
:102B8000FD1D60810E94CC2E2196E3CFCF93DF9371
:102B9000C3E0D2E060E0CE010E94CC2E2196C115A8
:102BA00084E0D807B9F7DF91CF910895DF92EF92D3
:102BB000FF920F931F93CF93DF9300D000D0CDB738
:102BC000DEB7F82E8FE08F1540F08FEF93E00E9474
:102BD000B82E03E012E08823C1F00F900F900F9001
:102BE0000F90DF91CF911F910F91FF90EF90DF90A9
:102BF0000895011584E0180781F3C8010E94B82EDA
:102C0000811101C0FA940F5F1F4FF110F2CF1982AA
:102C10001A821B821C82DD24D39478018FEFE81A7C
:102C2000F80AC8010E94B82E89831A828823A9F263
:102C30009FEF980F933078F48A83D9820E5F1F4FED
:102C4000C7010E94B82E8B83882339F2CE010196EA
:102C50000E940D04E2CF8701F9CF0F931F93CF930A
:102C6000DF93C62FD42F022FFC0182818823C9F065
:102C700060931F030E94CF2590931E0380931D0332
:102C800080E28C0F883008F050C0C77081E001C02E
:102C9000880FCA95EAF7DF91CF911F910F910C949D
:102CA000A21B10911F03161335C080911D03909134
:102CB0001E030E94E725883C910560F5C0E2CD0F18
:102CC0001D17B9F080E2810F883040F4177081E061
:102CD00001C0880F1A95EAF70E94A91BC83048F472
:102CE00081E09D2F977001C0880F9A95EAF70E94A6
:102CF000A21B802F0E948F1BC830B8F4D77081E0D0
:102D000001C0880FDA95EAF7DF91CF911F910F91FB
:102D10000C94A91B80E28C0F883038F4C77081E0D6
:102D200001C0880FCA95EAF7EFCFDF91CF911F91CD
:102D30000F9108959C01CB01233F4CE5340731F1FD
:102D400090F4283DFCE53F07E9F0293D4CE53407C8
:102D500069F1273D3C4579F426E241EE61EE0E949F
:102D60002D1680E00895253FFCE53F07B9F090F06F
:102D7000263F3C45B9F0FC0182818823D1F01092B6
:102D80001F03089527E245EE65EEE9CF26E241EE06
:102D900060EEE5CF27E245EE64EEE1CF26E241EEBC
:102DA00062EEDDCF27E245EE66EED9CF28E241E0C4
:102DB000EBCF81E00895CF93DF93EC01FB0182819B
:102DC000882309F419C1C230FCE5DF07C0F1C63120
:102DD0009CE5D90730F09E012A5F3C45293031053A
:102DE00070F50E9459249093810480938004C0312F
:102DF000ECE5DE0709F4CFC008F05BC0C8308CE515
:102E0000D80709F4B6C088F5C430ECE5DE0709F44C
:102E1000A8C0C0F4C2308CE5D80709F49CC08091EA
:102E200080048260C330DC4509F498C0809180043E
:102E3000909181040E9467240E940F1E80E0DF9120
:102E4000CF910895809180048061C630ECE5DE0763
:102E500009F484C0809180048860C730DC4508F4A0
:102E60007DC080918004806279C0CC308CE5D80729
:102E700009F489C070F4809180048C60CA30ECE55C
:102E8000DE0709F46BC008F478C0809180048E7F5F
:102E900065C0CE308CE5D80709F479C080918004F4
:102EA0008B7FCF30DC4508F459C0809180048F7E41
:102EB00055C0CB3FECE5DE0709F457C030F5C33110
:102EC0008CE5D80709F46FC078F4C131ECE5DE0772
:102ED00009F465C0C231DC4509F0A8CF0E940F1E7D
:102EE000809180048F773AC0C5318CE5D80709F40A
:102EF00062C008F476C0809181048160CA3FDC45DD
:102F000009F094CF8093810491CFCF3FFCE5DF0798
:102F100009F44DC088F4809181048D7FCD3F9CE5FC
:102F2000D90781F3809181048E7FCE3FDC4550F339
:102F3000809181048360E6CFC130FDE5DF0709F4AD
:102F400059C008F444C080E0C230DD4509F06ECFBE
:102F50000E94EE246BCF8091800481608093800476
:102F600065CF809180048460F9CF80918104826074
:102F7000C9CF809180048064F1CF0E940F1E8091A0
:102F800080048068EBCF809180048D7FE7CF8091B3
:102F90008004877FE3CF809180048F7DDFCF809195
:102FA00080048F7BDBCF80918004837FD7CF80919B
:102FB00081048C7FA7CF8091800482FB992790F9B0
:102FC00021E0922790FB82F990FB83F9C7CF809193
:102FD0008104982F909591708E7F892B90FB81F9B9
:102FE00091CF0E940F1E90918004892F97FB87F943
:102FF0008058B4CF81E0ACCF81E021CFCF93DF9375
:10300000EB0186319C4511F50E9491239A81992309
:1030100099F08A7A91E009F490E09093200381116D
:1030200009C089E20E946C230E94DD2380E0DF91C9
:10303000CF91089585E3F6CF80912003811104C0DC
:1030400089E20E947323F0CF85E3FBCF81E0EFCFCD
:103050008EE1499B02C08150E1F7499BFECF089564
:10306000599880E28A95F1F7599A0895FC013BE05E
:103070003A95F1F720E090E080E031E040E14A95B8
:10308000F1F7880F499B02C08160232742E04A95EF
:10309000F1F7000040E14A95F1F79F5F6913EECF29
:1030A00090E19A95F1F799B132E03A95F1F7000085
:1030B00040E14A95F1F79695917092272081920F01
:1030C00090830895EF92FF920F931F93CF93DF9316
:1030D0000F92CDB7DEB719828C017C01E60EF11C90
:1030E0000E151F0561F481E09981911180E00F9028
:1030F000DF91CF911F910F91FF90EF9008950E9463
:10310000281868E0CE0101960E943618F8018193D4
:103110008F01E6CF909323038093220360932103D2
:10312000519A599A089590932303809322036093B0
:1031300021035198599AE99AE9E6F0E08081837F6A
:10314000808308956150770B91E001C0990F6A95D3
:10315000EAF720E031E0911108C0222391F0599A5A
:1031600080E28A95F1F759980895492F482339F05C
:10317000599A232740E24A95F1F79695ECCF599852
:10318000F9CF5998EDCFFF920F931F93CF93DF9311
:10319000EC018C01060F111DC017D10731F4DF912E
:1031A000CF911F910F91FF900895F9900E943018D0
:1031B00068E08F2D0E94A218EFCF1F920F920FB6DA
:1031C0000F9211240F931F932F933F934F935F936D
:1031D0006F937F938F939F93AF93BF93EF93FF93DF
:1031E000CF93DF930F92CDB7DEB719820E942818D4
:1031F00067E0CE0101960E943618082F06950695C5
:103200000695982F92959570202F2570920F292F53
:103210002370969596958770920F891344C0898183
:10322000811141C0809121038017E8F120E12A95A6
:10323000F1F7599A519A82E08A95F1F700C0A8E017
:103240000A9FC00111240091220310912303080F4B
:10325000191F5998F8016581662321F086819781AD
:103260000E94C3180E943018F0E1FA95F1F75998BE
:103270005198599A20E12A95F1F7D80112966C914C
:103280001297662331F113968D919C910E946218DA
:10329000D801ED91FC91882311F088E001C082E013
:1032A00080830E9428180F90DF91CF91FF91EF91BA
:1032B000BF91AF919F918F917F916F915F914F914E
:1032C0003F912F911F910F910F900FBE0F901F9064
:1032D0001895ED91FC91E1CF0F931F93CF93DF935E
:1032E00020912103281719060CF471C08C0193E07A
:1032F000000F111F9A95E1F7C0912203D09123038B
:10330000C00FD11FF894519A599825E02A95F1F7EA
:103310000000982F969595708570980F892F83706F
:1033200096959695980F092B0E94301800C067E07B
:10333000802F0E94A21880E18A95F1F75198599A3E
:10334000499B17C087E090E0499915C06D816623BD
:1033500021F18E819F810E94621881111EC0519AB5
:10336000599AE881F98182E08083789482E090E044
:103370000DC000C0E5CF019771F4519A599AE881C8
:10338000F98181E08083789481E090E0DF91CF91B2
:103390001F910F91089500C0D7CF0E94281820E2F6
:1033A0002A95F1F75998519A80E18A95F1F76A8147
:1033B000662321F08B819C810E94C3180E943018E3
:1033C000E881F9811082789490E080E0DFCF84E09A
:1033D00090E0DCCF90932903809328030895E09137
:1033E0002803F0912903309721F00190F081E02D1E
:1033F000099480E00895E0912803F0912903309723
:1034000021F00280F381E02D099408952091260394
:10341000309127032817390771F090932703809381
:103420002603E0912803F0912903309721F00680CC
:10343000F781E02D0994089520912403309125030C
:103440002817390771F09093250380932403E091A6
:103450002803F0912903309721F00084F185E02DB5
:103460000994089585B7806885BF85B7806885BF52
:103470000895089508950C94391A08950C943D1AEE
:103480000E94321A0E943A1A0C943B1A0C94320889
:103490000E94C6250E94F5060E94EF120E94412656
:1034A0000E9412110E94320F0C943E1AAF92BF92EA
:1034B000CF92DF92EF92FF920F931F93CF93DF9300
:1034C000CDB7DEB72A970FB6F894DEBF0FBECDBFDB
:1034D0000E9478070E94461A882309F461C08BE293
:1034E000A82E83E0B82E10E000E0C02E802F0E94AE
:1034F000E906E82EF501D1905F01D81609F44AC01B
:103500008091AB0381FD0E94EF0680E0FF24F394DD
:10351000DE249D2D9F21C9F18E83CF82EF2081E093
:1035200009F480E088870E94CF258160782F9A87F0
:1035300089874E815F8168858A850E94F21AF80129
:10354000E55DFC4F8081F826F0820E94A70F0E9463
:103550006E120E94EF1990912A03891791F10E942F
:10356000EF1980932A032A960FB6F894DEBF0FBE98
:10357000CDBFDF91CF911F910F91FF90EF90DF9022
:10358000CF90BF90AF900C948B048F5FFF0C863070
:1035900009F0BFCF0F5F1F4F0A30110509F0A5CF0B
:1035A0008FEF89838A831B820E94CF258160782FC9
:1035B0009D838C8349815A816B818D810E94F21A8F
:1035C000C4CF2A960FB6F894DEBF0FBECDBFDF91F1
:1035D000CF911F910F91FF90EF90DF90CF90BF9010
:1035E000AF900895CF93DF93CDB7DEB72B970FB68B
:1035F000F894DEBF0FBECDBF4F83588769877A87A7
:103600008B871E821D8285E0FE013796DE011196B2
:1036100001900D928A95E1F749815A816B817C81F5
:103620008D819E812B960FB6F894DEBF0FBECDBF65
:10363000DF91CF910C948520FC01808191810C94C5
:103640003E23CF93C82F882309F43FC08CEF8C0F03
:10365000813AA0F46C2F80912701909128010E945B
:103660000525882329F08C2F0E9473230E94DD23D7
:103670008C2F0E946C23CF910C94DD2380E28C0F61
:10368000883048F4C77081E001C0880FCA95EAF716
:103690000E949423F0CFEBE5EC0FE33040F4F0E030
:1036A000E253FE4F808190E0CF910C94061AC85AE5
:1036B000C73158F4EC2FF0E0EE0FFF1FE056FE4F3D
:1036C00080819181CF910C941C1ACF910895882309
:1036D00029F19CEF980F913A20F40E9473230C94E7
:1036E000DD2390E2980F983050F4877091E001C08C
:1036F000990F8A95EAF7892F0E949A23F0CF9BE5CC
:10370000980F933020F490E080E00C94061A885AC9
:10371000873120F490E080E00C941C1A0895CF9338
:10372000C82F0E94211BC93349F42FEF87EE93E085
:10373000215080409040E1F700C000008C2FCF91D5
:103740000C94671B882321F00E9494230C94DD23A2
:103750000895882321F00E949A230C94DD23089574
:10376000BF92CF92DF92EF92FF920F931F93CF936E
:10377000DF936C01D62FC72FFC01058102950F70D6
:10378000128111110E94B1230E948A23E82E8823FE
:1037900091F01123D1F08C2F807F803421F080E2D2
:1037A0008D0F883090F082E00E9428240E948A23A6
:1037B00091E0E82EE926BC2EB2949FE0B922EB2DD1
:1037C000F0E0E05BF04D0C94282EE12CF4CF0C2FB0
:1037D0000F70C07F11F00295007F1123A9F0002324
:1037E00059F080E28D0F883010F0D11109C0802F80
:1037F0000E9494230E94DD238D2F0E94211B14C060
:10380000802F0E94A423F6CF8D2F0E94671B0023D8
:1038100059F080E28D0F883010F0D1112CC0802F2C
:103820000E949A230E94DD232B2D2850330B243035
:10383000310520F40E94EF190E948B04EE2009F458
:1038400093C10E94862380FD8FC1F60112820E94DF
:1038500080230E940922C6010E94D51D0E94802358
:10386000DF91CF911F910F91FF90EF90DF90CF905C
:10387000BF900C942A22802F0E94AA23D3CFFC2F22
:10388000FF70FF2EC07FC03219F0F29480EFF82253
:10389000DD2369F0D13049F1112391F1002351F179
:1038A000F601858180FFA8CF8F70858323C0112307
:1038B00081F0011106C00E94C4238F290E94A21B1F
:1038C000B3CF0130C1F70E94C4238F290E94CA23BD
:1038D000ABCF011106C00E94D3238F2D0E94A91BDC
:1038E000A3CF013009F4A0CFF6CF112329F0063081
:1038F00008F09ACF8F2DE2CF053008F095CFEDCFAD
:10390000002359F3D93349F4FFEF27EE33E0F150A8
:1039100020403040E1F700C000008D2F0E94671B5F
:1039200083CF8C2F86958695837069F0813009F05E
:103930007BCF8D2F9C2F9370111102C090E080E0FF
:103940000E941C1A71CF8D2F9C2F9370111102C0F1
:1039500090E080E00E94061A67CF8C2F837009F0F8
:1039600041C0111161CF4D2F429546954770440FCC
:10397000440F0D2F0F7010E030E020E0042E04C043
:10398000000F111F221F331F0A94D2F760E070E06E
:10399000CB01D4FF0FC06FE070E080E090E004C086
:1039A000660F771F881F991F4A95D2F7609570950B
:1039B00080959095C695C695C370602B712B822B10
:1039C000932BC23049F058F4C13019F00E94BB214A
:1039D0002BCF0E94A92128CF0E94CD2125CF0E9464
:1039E000A72122CF8695112311F08C2F8170882377
:1039F00009F41ACF4D2F429546954770440F440F56
:103A00000D2F0F7010E030E020E0042E04C0000FF6
:103A1000111F221F331F0A94D2F760E070E0CB0120
:103A2000D4FF0FC06FE070E080E090E004C0660F4C
:103A3000771F881F991F4A95D2F7609570958095DA
:103A40009095C695C695C370602B712B822B932BD6
:103A5000C23049F058F4C13019F00E948022E4CEFF
:103A60000E946E22E1CE0E949222DECE0E94E321CD
:103A7000DBCECF70112329F08C2F0E9409228D2FCD
:103A80001DCF8D2F0E94A91B8C2F0E942A22CCCEE5
:103A9000D23F89F160F4D03FC9F0D13F29F1112321
:103AA00009F442C00111A8CE8C2F8F7121C0D33FE1
:103AB00039F1D43FA1F7112369F1CF718C2F0E9406
:103AC000092263E08C2F0E941324AECE112341F013
:103AD000053008F0A9CE8C2F8F710E944D22A4CE04
:103AE000063008F0A1CEF7CF8C2F8F71112369F229
:103AF0000E94092299CE8C2F8F711123C9F3C5CF53
:103B0000112329F08C2F8F710E94F4218DCE0E94F9
:103B1000EF218ACE81E00E942824023008F484CE6E
:103B200082E00E94282480CE002359F0D93309F086
:103B3000F4CE8FEF97EEE3E081509040E040E1F764
:103B4000EACE8C2F8F71A1CF4C2F4F706D2FC601F5
:103B50000E94F1040E941F2167CE4C2F4F706D2FE1
:103B6000C6010E94F40460CEDF91CF911F910F91A6
:103B7000FF90EF90DF90CF90BF9008950F931F9329
:103B8000CF93DF93EC01688179818A810E94482379
:103B90008C010E94A4220E94A621B801CE01DF91CF
:103BA000CF911F910F910C94B01BCF93DF93EC0139
:103BB0008B819C81892B29F08881998189238F3F72
:103BC00059F4DF91CF910895CE010E94BE1DCE0120
:103BD000DF91CF910C944E03CE010E94A30481117A
:103BE000F3CF0E948A23882361F38A81882349F3D3
:103BF00082E0DF91CF910C9428240E94B1230E948F
:103C0000C1230E94DD2390E080E00E94061A90E02C
:103C100080E00C941C1A0E947A230C94FD1D0E94D3
:103C2000A1230C940B1EE92FE295EF70E250EE30C9
:103C300070F4F0E0E05AF04D0C94282E803F19F01B
:103C400020F4883E20F481E00895843FE1F380E091
:103C50000895883EC0F3813FD1F7F5CF93FB8827C5
:103C600080F908950E943E230C94131ECF93DF9396
:103C700000D000D00F92CDB7DEB70F900F900F900D
:103C80000F900F90DF91CF910895CF93DF9300D0E5
:103C900000D000D0CDB7DEB726960FB6F894DEBFC1
:103CA0000FBECDBFDF91CF9108951F93CF93DF93C8
:103CB000C091360316E0809137038C1304C0DF9166
:103CC000CF911F910895D0E01C9FF0011D9FF00D32
:103CD0001124E85CFC4F40815181628173818481B1
:103CE00095810E94451E2196C770E5CF40916803DB
:103CF0005091690360916A0370916B0380916C032A
:103D000090916D030C94451E1F93CF93DF93809188
:103D10006D03807FA9F480916A03882389F08091E4
:103D20003603C09137036091680370916903A091D5
:103D30006B03B0916C03D62FD72316E0C81304C0D1
:103D4000DF91CF911F91089590E0109711F0DF3F20
:103D500019F401968770F2CF189F9001199F300DCA
:103D60001124F901E85CFC4F41814713F2CF4081F7
:103D70004613EFCF42814111ECCF438154814A1B5E
:103D80005B0B483C510528F780916D038F70806173
:103D900080936D03F901E35CFC4F80818F7080613B
:103DA000808388E693E00E94D51DDF91CF911F911B
:103DB0000C94551EAF92BF92CF92DF92EF92FF927A
:103DC0000F931F93CF93DF93CDB7DEB761970FB6F5
:103DD000F894DEBF0FBECDBF8C0185E0F801DE0197
:103DE0001D9601900D928A95E1F7F801408151816D
:103DF000E28088E6C82E83E0D82E60916B03709134
:103E00006C036115710509F461C1909168032091FB
:103E10006903892F82238F3F09F458C1A380B4809E
:103E2000F0906A03F501E61BF70BFF2009F4FCC0D4
:103E300080916D03382F307FE83CF10508F0B2C067
:103E4000311179C0FE2C251323C0941321C0E11039
:103E50001FC08F70806180936D030E94761EC60123
:103E60000E94D51D80916D03F80185838F2D619689
:103E70000FB6F894DEBF0FBECDBFDF91CF911F917B
:103E80000F91FF90EF90DF90CF90BF90AF9008958B
:103E9000AB2829F0842F85238F3F09F033C180E0C0
:103EA000F82FF170DF2E80FF3CC080913603209107
:103EB000370336E0821315C04D875E878D859E855A
:103EC0000E943E23292F22952F702230F0F02430BB
:103ED00018F59F70F1F0F8019581907FD1F4D12C05
:103EE0001EC090E0389FF001399FF00D1124E85C6E
:103EF000FC4F6181651306C06081641303C0628159
:103F00006E110FC001968770D5CF9F7011F0882376
:103F100031F3805E883018F3C8010E94D51DFD2C56
:103F2000A5CFEE2009F4A2CF80916D03816080932C
:103F30006D03F12C9BCF251306C0941304C0F80128
:103F4000EE2009F48DC04D875E878D859E850E9489
:103F5000321E882319F1EE2009F180916D03803221
:103F600070F0209168033091690338872F83198698
:103F7000BB86AA868C87CE0107960E94D51D86E057
:103F8000F801A8E6B3E001900D928A95E1F70E944E
:103F9000841E0E94761EFF24F39468CFC8010E94FD
:103FA000D51DF9CF311113C07A2DB98AA88A6E2D8B
:103FB00089890E94361E88E693E00E94D51D86E01E
:103FC000F60111928A95E9F70E94761EB2CF251369
:103FD0000FC094130DC0E1100BC0F8018583C80118
:103FE0000E94D51D86E0F60111928A95E9F73ECF31
:103FF0004D875E878D859E850E94321E882371F2D3
:10400000EE2061F280916D03803208F4B8CF2091E8
:104010006803309169033A8329831B82BD82AC8295
:104020008E83CE010196A9CFE83CF10508F041C08E
:10403000FE2CEE2009F4B2CF25132AC0941328C019
:1040400080916D0380FD1BC0982F907FC1F0F80117
:104050008583903F31F0982F907F905F8F70892BF0
:104060008583C8010E94D51D86E0F801A8E6B3E06B
:1040700001900D928A95E1F70E94761EF7CE86E0B8
:10408000F801A8E6B3E001900D928A95E1F7EECE33
:104090004D875E878D859E850E94321E81116FCF70
:1040A00080916D03816080936D03C8010E94D51DCE
:1040B000DDCE7A2DB98AA88A6E2D89890E94361E96
:1040C00086E0F60111928A95E9F7D6CFEE2009F441
:1040D00065CF4D875E878D859E850E94321EF82EA6
:1040E000882309F45BCF86E0F801A8E6B3E00190ED
:1040F0000D928A95E1F788E693E00E941C1B0E94CE
:10410000841EBACF81E08E25CBCE1F93CF93DF9351
:10411000CDB7DEB72C970FB6F894DEBF0FBECDBF7C
:104120004F83588769877A878B879C87CE0107964C
:104130000E94DA1E882369F08A859B85892B39F0D5
:104140004F815885842F85238F3F09F071C016E079
:104150005FC086E0FE013796DE01119601900D9258
:104160008A95E1F78A859B85892B89F388859F81CC
:1041700089238F3F61F32091370330E0C901019615
:1041800087709927409136034817190671F40E94E9
:104190000F1E109237031092360386E0E8E6F3E034
:1041A000DF011D928A95E9F7D2CF96E0929FD00168
:1041B000939FB00D1124A85CBC4FFE013196019075
:1041C0000D929A95E1F7809337030E94551EBFCF59
:1041D000819FC0011124885C9C4F0E94DA1E8823B5
:1041E000E9F0E09136031E9FF0011124E85CFC4FDA
:1041F0004081518162817381848195810E94451E35
:104200008091360390E0019687709927809336035A
:1042100080913603909137038913DACF2C960FB62D
:10422000F894DEBF0FBECDBFDF91CF911F910895EF
:1042300069857A858B859C850E94451E88CFEF9283
:10424000FF920F931F93CF93DF938C01892B81F003
:10425000F12CEE24E394E8012196F801849184374F
:1042600070F4843008F05FC08130B1F08230A1F189
:10427000DF91CF911F910F91FF90EF9008958537B7
:1042800009F44CC008F43DC09CE7980F903780F7C4
:104290008F770E94671B49C00E5F1F4FFE018491FC
:1042A00090E2980F983060F48770FE2D01C0FF0FE8
:1042B0008A95EAF78F2F0E94B4230E94DD2302C063
:1042C0000E94211B8F2D815030F2EFE9FFE03197E2
:1042D000F1F700C00000F7CF0E5F1F4FFE01849181
:1042E00090E2980F983050F48770FE2D01C0FF0FB8
:1042F0008A95EAF78F2F0E94BA23DFCF0E94671BAF
:10430000E1CF0E5F1F4FFE01C491C150D8F28FE97B
:104310009FE00197F1F700C00000F7CF0E5F1F4F3D
:10432000FE01F490CFCF0E94211B8E01CBCF0895C8
:104330000C9497210E94982160939A0370939B0399
:1043400080939C0390939D030C94FD1D08950C9401
:104350009A210F931F9300919A0310919B03209130
:104360009C0330919D03602B712B822B932B1F910B
:104370000F910C949A210F931F9300919A0310911F
:104380009B0320919C0330919D0360237123822322
:1043900093231F910F910C949A210F931F930091D7
:1043A0009A0310919B0320919C0330919D036027F9
:1043B0007127822793271F910F910C949A210C94B7
:1043C00097210C94DF210E94E12160939603709362
:1043D000970380939803909399030C94FD1D60E0DC
:1043E00070E0CB010C94E3210F931F9341E050E068
:1043F00060E070E08A019B0104C0000F111F221FC2
:10440000331F8A95D2F7C901B8011F910F910C94FF
:10441000E3210F931F9341E050E060E070E004C09F
:10442000440F551F661F771F8A95D2F78091960318
:1044300090919703A0919803B09199038A019B01F1
:10444000082B192B2A2B3B2BC901B8011F910F9167
:104450000C94E3210F931F9341E050E060E070E083
:1044600004C0440F551F661F771F8A95D2F7CB01F2
:10447000BA01609570958095909500919603109182
:10448000970320919803309199036023712382232D
:1044900093231F910F910C94E3210F931F9341E0FD
:1044A00050E060E070E004C0440F551F661F771FA6
:1044B0008A95D2F78091960390919703A0919803E3
:1044C000B09199038A019B01082719272A273B27C6
:1044D000C901B8011F910F910C94E3210F931F9311
:1044E00000919603109197032091980330919903BE
:1044F000602B712B822B932B1F910F910C94E32136
:104500000F931F93009196031091970320919803A6
:104510003091990360237123822393231F910F917C
:104520000C94E3210F931F9300919603109197032E
:104530002091980330919903602771278227932750
:104540001F910F910C94E3210895E92FEE0FE90FCD
:10455000EE0F8E0F982F977041E001C0440F9A958F
:10456000EAF786958695869595E0899FF001112456
:10457000E259FC4F30E020E070E05191DF011197EB
:10458000CB01022E02C0969587950A94E2F78170BE
:1045900081958527842385278C932F5F3F4F253076
:1045A000310559F70895E92FEE0FE90FEE0F8E0F41
:1045B000982F977086958695869525E0829FF001C5
:1045C0001124E259FC4F50E040E080E0219130E0BE
:1045D000092E02C0369527950A94E2F721703327F9
:1045E000042E01C0220F0A94EAF7822B4F5F5F4F1F
:1045F0004530510559F70895BF92CF92DF92EF925F
:10460000FF920F931F93CF93DF938C01C09096037B
:10461000D0909703E0909803F090990380919A03CB
:1046200090919B03A0919C03B0919D03C82AD92A25
:10463000EA2AFB2ACFE1D0E0BC2ED701C6010C2E1E
:1046400004C0B695A795979587950A94D2F780FDF3
:104650000EC0219788F7B12C8B2DDF91CF911F9140
:104660000F91FF90EF90DF90CF90BF900895B80129
:104670008C2F0E94FD04019761F3EECFCF93DF935F
:10468000EC010E94FC22BE01DF91CF910C94FD044D
:104690001F93CF93DF93EB0190913503992331F072
:1046A000CB01DF91CF911F910C943E23882379F0A9
:1046B000CB010E94FC22182F682FCE010E94A52258
:1046C000BE01812FDF91CF911F910C94FD04CB018E
:1046D0000E94D322182FF4CF682F80912701909148
:1046E00028010C943B25682F809127019091280187
:1046F0000C943D2580912701909128010C943F2531
:1047000080919E03859585958595089580919E035A
:104710008770089590919E03977081E009F480E07E
:1047200008958091AA0308959091AA03892B8093FC
:10473000AA03089580959091AA0398239093AA03C1
:1047400008951092AA0308959091A903892B80934C
:10475000A903089580959091A90398239093A903A4
:1047600008951092A90308959091A803892B80932E
:10477000A803089580959091A80398239093A80387
:1047800008951092A803089580919F0308950895B5
:104790000C94C72390919F03981721F080939F0357
:1047A0000C94C823089580919F03882329F01092C8
:1047B0009F0380E00C94C8230895E0912701F091B5
:1047C00028018091AA038083E0912701F0912801BC
:1047D00080819091A903892B8083E0912701F0913A
:1047E000280180819091A803892B808390919F0359
:1047F000992381F0E0912701F09128018081892B94
:10480000808380912701909128010E94F3248111D7
:104810000E94D32380912701909128010C94FB19C9
:1048200008950C94102498E0899F90011124622B24
:1048300060939E030E94092280919E038595859531
:1048400085950C94112410929E0380E00C94112401
:1048500090919E038095892380939E03282F277033
:1048600071F4282F082E000C330B9217130639F021
:104870008595859585950E942A220C942324089578
:104880006FEF7FEF90E080E00C94EA2E90E080E004
:104890000E94C62E21E08C3E9E4F09F020E0822F20
:1048A000089582E090E00C94B82E83E090E00C94A0
:1048B000B82ECF9384E090E00E94B82EC82F81E2FA
:1048C00090E00E94B82E982F8C2FCF910895CF930F
:1048D000C92F682F84E090E00E94CC2E6C2F81E2DB
:1048E00090E0CF910C94CC2E86E090E00C94B82E02
:1048F000682F86E090E00C94CC2EAB01BC018FE0D9
:1049000090E00C94DE2EAB01BC0183E190E00C94AE
:10491000DE2E60E070E0CB010C94832460E070E058
:10492000CB010E947D240C9489246CEE7EEF90E0F4
:1049300080E00E94EA2E60E082E090E00E94CC2EAF
:1049400060E083E090E00E94CC2E10929A031092D7
:104950009B0310929C0310929D0360E084E090E022
:104960000E94CC2E60E081E290E00E94CC2E60E0BC
:1049700085E090E00E94CC2E60E086E090E00E940E
:10498000CC2E6FEF87E090E00E94CC2E40E050E00C
:10499000BA0188E090E00E94DE2E60E08DE090E0B9
:1049A0000E94CC2E40E050E0BA0188E190E00E94E5
:1049B000DE2E60E087E190E00E94CC2E40E050E0E7
:1049C000BA018CE190E00E94DE2E60E080E290E08F
:1049D0000E94CC2E0C948E240C949524682F8EE08B
:1049E00090E00C94CC2E9C012E5F3F4FAC01485FB1
:1049F0005F4F80E02417350709F40895F90191917C
:104A00009F019923B9F38F5FF5CF662349F0FC012D
:104A1000329608962191261729F0E817F907D1F761
:104A200080E0089581E008959C01FC0132969FEF9B
:104A300080E04191461751F09F3F19F4411101C0A8
:104A4000982F8F5F8630A9F79F3F09F40895290FAB
:104A5000311D97FD3A95F90162830895FC01329664
:104A600008962191261303C0DF0111971C92E817C5
:104A7000F907B9F708950C9414250C942E25029685
:104A800026E0FC0111922A95E9F70895089508950A
:104A90000C9447250E94482580918604843061F15A
:104AA0001092AC0388E190E020E40FB6F894A8954A
:104AB000809360000FBE2093600080E00E9410127F
:104AC00080E00E948B040E94482583B7817F846028
:104AD00083BF83B7816083BF7894889583B78E7FC7
:104AE00083BF0FB6F894A895809160008861809389
:104AF0006000109260000FBE08950895CF930E9449
:104B000046250E9478070E947D25C0E08C2F0E94D8
:104B1000E906811105C0CF5FCA30C1F7CF91089572
:104B200081E0FCCF08950C9492250E940F1E0E94F4
:104B300012110E94EF190E948B040C9493251F926E
:104B40001FB61F9211248F939F93AF93BF938091B1
:104B5000AC03811113C080917C0490917D04A091DD
:104B60007E04B0917F044196A11DB11D80937C0409
:104B700090937D04A0937E04B0937F04BF91AF9186
:104B80009F918F911F901FBE1F90189582E084BD4A
:104B900093E095BD9AEF97BD80936E0008952FB76F
:104BA000F89480917C0490917D04A0917E04B09152
:104BB0007F042FBF08952FB7F89460917C04709103
:104BC0007D0480917E0490917F042FBF08959C0105
:104BD0004FB7F89480917C0490917D04A0917E045D
:104BE000B0917F044FBF821B930B089578941F925E
:104BF0001FB61F9211248F939F93AF93BF93809101
:104C00007C0490917D04A0917E04B0917F04019674
:104C1000A11DB11D80937C0490937D04A0937E041C
:104C2000B0937F04BF91AF919F918F911F901FBE52
:104C30001F90189587E797E79093010880930008E5
:104C400088E19AE00FB6F894A895809360000FBEB3
:104C500090936000FFCF0C94DC120E9478078FE3E2
:104C60009CE90197F1F700C000000E94780780E0FE
:104C70000E94E90680FF04C00E942B260C941A268D
:104C800008950E944624811102C00E94EC240E94D3
:104C900051248093AB030E94592490938104809304
:104CA00080040E945524682F70E090E080E00C940E
:104CB000A7218091B50308950895CF93DF9300D085
:104CC0000F92CDB7DEB790918604943011F58983A9
:104CD0007B836A839093E9008FEF9091E800815085
:104CE00095FD06C095ED9A95F1F700008111F5CF7D
:104CF0008091E80085FF0DC050E040E063E070E087
:104D0000CE0101960E94D4288091E8008E7780938E
:104D1000E8000F900F900F90DF91CF910895CF93FF
:104D2000DF93EC010E94B728823011F0843031F417
:104D3000BE0184E0DF91CF910C945D26DF91CF918D
:104D40000895BC0183E00C945D26CF93DF93EC01C2
:104D50000E94B728823011F0843039F581E08093C9
:104D6000E9008FEF9091E800815095FD06C095ED28
:104D70009A95F1F700008111F5CF8091E80085FF49
:104D800014C050E040E068E070E0CE010E94D428FA
:104D90008091E8008E778093E80088E0FE01ADEA1C
:104DA000B3E001900D928A95E1F7DF91CF910895DC
:104DB000CF93FC01603221F580918604843001F5A7
:104DC000C091E900CF702091EC00922F917020FDEE
:104DD00090E8C92B82E08093E9008091E80080FF91
:104DE0000CC050E040E060E270E0CF010E94D428A7
:104DF0008091E8008E778093E800CF70C093E9003F
:104E0000CF91089580918504811109C00E94B32A31
:104E10000E94102B8091E20084608093E20008954C
:104E2000109285040895089508950C94952542E004
:104E300061EC81E00E942F2A42E261EC84E00E9452
:104E40002F2A42E261EC82E00E942F2A42E260ECCB
:104E500083E00C942F2A80918804833009F461C088
:104E600030F48130D1F1823009F49DC008958A3048
:104E700009F489C08B3009F46FC0893009F050C043
:104E800080918704813209F04BC080918B0490910E
:104E90008C04009719F0029709F042C08091E80055
:104EA000877F8093E8008091E80082FF35C0909171
:104EB000F3008091F200029729F48091F1008B7F3A
:104EC000813021F48091F1008093B5038091E80056
:104ED0008B778093E8000C94632A80918704813A51
:104EE000F9F48091E800877F8093E80080918B043B
:104EF00090918C04892B61F468E08DEA93E070E076
:104F00000E9472298091E8008B778093E8000895D1
:104F100060E090E080E0F3CF809186048111C3CF00
:104F2000089580918704813AD9F780918B049091FC
:104F30008C04892BA9F78091E800877F8093E80093
:104F40008091E80080FFFCCF809133018093F100D5
:104F50008091E8008E77BDCF80918704813201F780
:104F600080918B0490918C04892BD1F68091E8007C
:104F7000877F8093E8000E94632A80918904809350
:104F800033010C940F1E80918704813249F6809181
:104F9000E800877F8093E8000E94632A80918A045A
:104FA0008093B603089580918704813A09F0B8CFC1
:104FB0008091E800877F8093E8008091E80080FF7F
:104FC000FCCF8091B603C2CFCDB7DEB7A0970FB6A6
:104FD000F894DEBF0FBECDBF84B7877F84BF0FB606
:104FE000F894A89580916000886180936000109289
:104FF00060000FBE80E890E00FB6F89480936100E7
:10500000909361000FBE0E94401A0E94B32A0E9432
:10501000102B8091E20084608093E20078940E94DB
:10502000992D0E94481A89E291E00E94EA1913E042
:1050300080918604853039F10E94561A8091860449
:105040008430B1F71093E9008091E80082FFF0CF3F
:105050008091E80090E085FF09C050E040E060E208
:1050600070E0CE0101960E94232991E08091E80032
:105070008B778093E8009923D9F260E2CE01019604
:105080000E94BE13D5CF0E944A25809184048823B4
:1050900079F20E947E25882359F20E94BE28C8CF4B
:1050A0000C945228292F33272330310521F168F43D
:1050B0002130310509F449C02230310509F44AC0D4
:1050C00090E080E030E020E029C02132310581F11C
:1050D00022323105A9F76330710590F7FB01EE0F1D
:1050E000FF1FEC52FE4F208131816F527E4FFB013A
:1050F000808190E013C099278130910599F0009745
:1051000041F08230910589F00397D1F6E6E5F4E0AD
:1051100002C0EAE7F4E0849190E09F01FA01318354
:1051200020830895EAE6F4E0F6CFECE5F4E0F3CF6F
:105130006330710528F6660F771FFB01E652FE4FBC
:105140002081318189E090E0E9CF82E190E029ED92
:1051500034E0E4CF8BE590E02EE734E0DFCF8091C0
:105160008604843011F482E0089581E008958091EE
:10517000B703811102C00C94AF28089580E189BD66
:1051800082E189BD09B400FEFDCF8091D8008F7DFA
:105190008093D8008091E00082608093E00080914D
:1051A000E00081FDFCCF0895AF92BF92CF92DF92D5
:1051B000FF920F931F93CF93DF936C01EB018A0152
:1051C0000E94822AF82E811123C00115110539F0A1
:1051D000F80180819181C81BD90BC80ED91EB12C52
:1051E000A12C2097A9F08091E80085FD22C0809134
:1051F000E8008E778093E80001151105A1F0F80111
:1052000080819181A80EB91EB182A08285E0F82E1E
:105210008F2DDF91CF911F910F91FF90DF90CF9055
:10522000BF90AF9008950E94822A8823D1F2F82E71
:10523000EFCFF60181916F018093F1002197FFEF8D
:10524000AF1ABF0ACECFAF92BF92CF92DF92FF923A
:105250000F931F93CF93DF936C01EB018A010E94A0
:10526000822AF82E811123C00115110539F0F801A9
:1052700080819181C81BD90BC80ED91EB12CA12CDD
:105280002097A9F08091E80085FD22C08091E80078
:105290008B778093E80001151105A1F0F80180815A
:1052A0009181A80EB91EB182A08285E0F82E8F2DC3
:1052B000DF91CF911F910F91FF90DF90CF90BF9022
:1052C000AF9008950E94822A8823D1F2F82EEFCF62
:1052D0008091F100F60181936F012197FFEFAF1AE2
:1052E000BF0ACECFFC0180918D0490918E04861769
:1052F0009707A0F06115710529F49091E8009E7759
:105300009093E80090E06115710551F4911108C087
:105310008091E80082FF34C080E00895BC01F2CFA4
:10532000809186048823C1F18530C1F18091E80025
:1053300083FD30C08091E80082FDEACF8091E800D3
:1053400080FFE1CF8091F3002091F200382F6115AA
:10535000710519F02830310558F091E028303105F9
:1053600009F090E02091E8002E772093E800CBCF61
:1053700081918093F100615071092F5F3F4FE7CF1A
:1053800080918604882341F0853041F08091E800C7
:1053900083FFBECF81E0089582E0089583E0089501
:1053A000FC0180918D0490918E0486179707A0F0E0
:1053B0006115710529F48091E8008E778093E800EB
:1053C00090E06115710551F4911108C08091E800D9
:1053D00082FF35C080E00895BC01F2CF8091860441
:1053E0008823C9F18530C9F18091E80083FD31C07F
:1053F0008091E80082FDEACF8091E80080FFE1CF54
:105400008091F3002091F200382F6115710519F099
:105410002830310558F091E02830310509F090E04E
:105420008091E8008E778093E800CBCF84918093C1
:10543000F1003196615071092F5F3F4FE6CF8091A7
:105440008604882341F0853041F08091E80083FF95
:10545000BDCF81E0089582E0089583E00895982FFC
:10546000973028F08F708093E90081E00895909341
:10547000E900242F762F50E0981731F07091EC005E
:105480002091ED005091F00021FD02C09F5FE8CF18
:105490003091EB003E7F3093EB003091ED003D7F8B
:1054A0003093ED003091EB0031603093EB0070935E
:1054B000EC002093ED005093F0002091EE0027FDCA
:1054C000E5CF80E008958091870487FF13C0809125
:1054D000E80082FF06C08091E8008B778093E800A7
:1054E00004C0809186048111F2CF089580918604D2
:1054F0008823D9F38091E80080FFF8CF8091E800FD
:105500008E77ECCF2091E4003091E50095E6A9017B
:105510002091EC00822F817020FF06C08091E8006E
:1055200080FF06C080E008952091E80022FD1AC0A7
:1055300080918604882389F0853089F08091EB0082
:1055400085FD0FC02091E4003091E500421753071C
:10555000F9F29150E1F684E0089582E0089583E045
:10556000089581E008950E94212B0E94292BE0EEEE
:10557000F0E0808181608083E8EDF0E080818F77CA
:10558000808319BCA7EDB0E08C918E7F8C938081D5
:105590008F7E80831092850408950F931F93CF937D
:1055A000DF930E94212B0E94292BC8EDD0E0888137
:1055B0008F77888388818068888388818F7D8883BE
:1055C00019BC1092860410928204109284041092E6
:1055D000830400EE10E0F80180818B7F8083888156
:1055E0008160888342E060E080E00E942F2AE1EE43
:1055F000F0E080818E7F8083E2EEF0E08081816048
:105600008083808188608083F80180818E7F8083A1
:10561000888180618883DF91CF911F910F910895D8
:10562000E8EDF0E080818F7E8083E7EDF0E080811F
:105630008160808384E082BF81E0809385040C9444
:10564000CD2AE8EDF0E080818E7F80831092E20029
:1056500008951092DA001092E10008951F920F92BF
:105660000FB60F9211242F933F934F935F936F9335
:105670007F938F939F93AF93BF93EF93FF9380910B
:10568000E10082FF0BC08091E20082FF07C08091A1
:10569000E1008B7F8093E1000E94982D8091DA00D9
:1056A00080FF19C08091D80080FF15C08091DA007A
:1056B0008E7F8093DA008091D90080FF96C080E1D0
:1056C00089BD82E189BD09B400FEFDCF81E08093F0
:1056D00086040E9402278091E10080FF19C080911A
:1056E000E20080FF15C08091E2008E7F8093E2008F
:1056F0008091E20080618093E2008091D800806216
:105700008093D80019BC85E0809386040E941427FA
:105710008091E10084FF2BC08091E20084FF27C0CC
:1057200080E189BD82E189BD89B5982F917080FFA4
:10573000FBCF8091D8008F7D8093D8008091E100CD
:105740008F7E8093E1008091E2008F7E8093E20063
:105750008091E20081608093E2008091820488233E
:1057600009F449C084E0809386040E941527809143
:10577000E10083FF29C08091E20083FF25C0809172
:10578000E100877F8093E10082E08093860410929D
:1057900082048091E1008E7F8093E1008091E2009D
:1057A0008E7F8093E2008091E20080618093E2002E
:1057B00042E060E080E00E942F2A8091F000886043
:1057C0008093F0000E941327FF91EF91BF91AF915A
:1057D0009F918F917F916F915F914F913F912F9109
:1057E0000F900FBE0F901F90189519BC1092860451
:1057F0000E94102770CF8091E30087FD93E0909383
:105800008604B3CF1F920F920FB60F9211242F93DD
:105810003F934F935F936F937F938F939F93AF9338
:10582000BF93CF93DF93EF93FF93D091E900DF70A5
:105830008091EC00C82FC17080FDC0E81092E90093
:105840008091F000877F8093F00078940E94462C2E
:105850001092E9008091F00088608093F000CD2BD9
:10586000CF70C093E900FF91EF91DF91CF91BF918D
:10587000AF919F918F917F916F915F914F913F91E8
:105880002F910F900FBE0F901F9018951F93CF93DD
:10589000DF93CDB7DEB7AA970FB6F894DEBF0FBE81
:1058A000CDBF87E894E02091F100FC012193CF0166
:1058B000F4E08F389F07B9F70E942B278091E8000A
:1058C00083FF1EC180918704909188049A3008F06C
:1058D00017C1E92FF0E0E259F04D0C94282E8038E2
:1058E00099F0823809F00CC180918B048F70873059
:1058F00008F006C18093E9008091EB0085FB8827C2
:1059000080F91092E90006C080918304909184048C
:10591000911182609091E800977F9093E8008093C6
:10592000F1001092F1008091E8008E77E5C08823A5
:1059300009F4D3C0823009F0E3C080918904811159
:10594000D6C080918B048F702FEF280F263008F07F
:10595000D7C08093E9002091EB0020FFC8C09330AE
:1059600031F48091EB0080628093EB00C0C0909195
:10597000EB0090619093EB0021E030E001C0220F3A
:105980008A95EAF72093EA001092EA008091EB00F2
:105990008860EACF8111B4C0109189041F7780918B
:1059A000E3008078812B8093E3008091E800877F7B
:1059B0008093E8000E94632A8091E80080FFFCCF7A
:1059C0008091E30080688093E30082E0111183E01E
:1059D0008093860495C08058823008F091C08091F1
:1059E000890490918A048C3D23E09207A1F583E01D
:1059F0008A838AE289834FB7F894DE01139620E008
:105A00003EE051E2E32FF0E050935700E49120FF95
:105A100003C0E295EF703F5FEF708E2F90E0EA30A9
:105A2000C0F0C7968D939D932F5F243159F74FBFD8
:105A30008091E800877F8093E8006AE270E0CE0101
:105A400001960E9472298091E8008B778093E8008C
:105A500057C0C096E7CF60918B0470918C04AE0163
:105A60004F5F5F4F0E945028BC01892B09F448C04A
:105A70009091E800977F9093E80089819A810E9435
:105A8000D029E1CF8038E1F58091E800877F8093CD
:105A9000E800809182048093F10045CF811130C0ED
:105AA00090918904923060F58091E800877F80931F
:105AB000E800909382040E94632A809182048823E4
:105AC00011F084E005C08091E30087FDFACF81E00A
:105AD000809386040E94172713C080918904813027
