:100000000C94C0020C9407030C9418170C9407036B
:100010000C9407030C9407030C9407030C94070338
:100020000C9407030C9407030C9457290C942B2A67
:100030000C94C8230C9407030C9407030C94070337
:100040000C9407030C9407030C9407030C94070308
:100050000C9407030C941F240C9407030C940703BF
:100060000C9407030C9407030C9407030C940703E8
:100070000C9407030C9407030C9407030C940703D8
:100080000C9407030C9407030C9407030C940703C8
:100090000C9407030C9407030C9407030C940703B8
:1000A0000C9407030C9407030C94070329001E000B
:1000B0001F002000210022002B0014001A0008005D
:1000C00015001700E10004001600070009000A00EF
:1000D000E0001D001B00060019000500E300000001
:1000E000000001512C00E2002D0027002600250011
:1000F000240023002F00130012000C0018001C0025
:10010000347233000F000E000D000B003171380007
:100110003700360010001100307800000000015157
:100120002A00287435003A003B003C003D003E00A8
:100130002B00C55C4A00005CC75CC95CE100C65C82
:10014000500052004F00CA5CE000CE5C4D005100F0
:10015000C85CC25C44000000000001002C00E2000A
:100160002E0043004200410040003F004C00490087
:100170004A00005C4B00A900847246004F00520008
:100180005000A800837148004D0051004E00AA00A5
:1001900045000000000001002A0028740000000053
:1001A000000000002A2B28000000000000000000D2
:1001B0000000000000000029000000002C1E342078
:1001C000212224342627252E362D3738271E1F209E
:1001D0002122232425263333362E37381F040506E3
:1001E0000708090A0B0C0D0E0F1011121314151627
:1001F0001718191A1B1C1D2F3130232D3504050625
:100200000708090A0B0C0D0E0F1011121314151606
:100210001718191A1B1C1D2F3130354C0000000017
:1002200000000000000000000000000000000000CE
:100230007E0F00D4FFFFFFC70000007832190A00CC
:10024000047F3F1F643214643214783C1E1E140A6B
:10025000052223252628292A2C2D2F303233353606
:10026000383A3B3D3E4042434547494A4C4E505147
:10027000535557595A5C5E6062646668696B6D6F6E
:1002800071737577797B7D7F81838587898A8C8E71
:1002900090929496989A9C9E9FA1A3A5A7A8AAAC79
:1002A000AEAFB1B3B4B6B8B9BBBCBEBFC1C2C3C5B3
:1002B000C6C7C9CACBCCCDCED0D1D2D2D3D4D5D655
:1002C000D7D7D8D9D9DADADBDBDBDCDCDCDCDCDD88
:1002D000DDDDDDDCDCDCDCDCDBDBDBDADAD9D9D86C
:1002E000D7D7D6D5D4D3D2D2D1D0CECDCCCBCAC904
:1002F000C7C6C5C3C2C1BFBEBCBBB9B8B6B4B3B133
:10030000AFAEACAAA8A7A5A3A19F9E9C9A989694CD
:1003100092908E8C8A89878583817F7D7B797775A2
:1003200073716F6D6B6968666462605E5C5A595781
:10033000555351504E4C4A4947454342403E3D3B40
:100340003A3836353332302F2D2C2A2928262523CA
:1003500022FFAA7F554000010101010101010101B5
:100360000202020202020202020303030303030366
:100370000304040404040404050505050506060633
:100380000606070707070708080808090909090AF0
:100390000A0A0B0B0B0C0C0C0D0D0D0E0E0E0F0F95
:1003A0000F10101111111212131314141515161623
:1003B0001717181819191A1A1B1B1C1D1D1E1E1F92
:1003C0002020212222232424252626272829292AE1
:1003D0002B2C2D2D2E2F3031323233343536373809
:1003E000393A3B3C3D3E3F40414243444546474805
:1003F000494A4C4D4E4F50515354555658595A5BDB
:100400005D5E5F616264656668696B6C6D6F70727A
:10041000737577787A7B7D7E8082838587888A8CE6
:100420008E8F91939596989A9C9EA0A2A3A5A7A91A
:10043000ABADAFB1B3B5B7BABCBEC0C2C4C6C9CB11
:10044000CDCFD1D4D6D8DBDDDFE2E4E7E9EBEEF0C7
:10045000F3F5F8FAFDFF0403300000000C034A0036
:100460006900720061006E0000000E034C00610024
:1004700064006E00690079000000040309040902A9
:100480005B00030100A0FA09040000010301010060
:100490000921110100012240000705810308000A1B
:1004A00009040100020300000009211101000122DA
:1004B0002200070582032000010705030320000135
:1004C00009040200010300000009211101000122BA
:1004D00032000705840320000A1201100100000009
:1004E00008091235370003010203010660FF0961A4
:1004F000A1010962150026FF0095207508810209F7
:1005000063150026FF00952075089102C0050109BA
:1005100080A101850319012AB700150126B70095AE
:100520000175108100C0050C0901A10185041901A4
:100530002AA002150126A002950175108100C005B0
:10054000010906A101050719E029E7150025019514
:1005500008750181029501750881010507190029B7
:10056000FF150026FF009506750881000508190192
:100570002905950575019102950175039101C0004A
:1005800011241FBECFEFDAE0DEBFCDBF04B603FEFD
:1005900027C080918D0490918E04A0918F04B0911A
:1005A00090048730904BA740B04BD1F410928D044B
:1005B00010928E0410928F041092900414BE84B78F
:1005C000877F84BF0FB6F894A895809160008861FA
:1005D00080936000109260000FBEE0E0F8E30995A0
:1005E00011E0A0E0B1E0E2E2FBE502C005900D926F
:1005F000A03EB107D9F724E0A0EEB1E001C01D9202
:10060000AD38B207E1F70E940D260C94402D0C94F2
:10061000000081E0089581E008950C940B03089593
:100620000C940F031F93CF93DF9300D000D00F9251
:10063000CDB7DEB749835A836B8330913403898108
:100640009A8131111DC06623B9F02223A9F00E94BE
:100650003321182F682F89819A810E94DC206981BB
:100660007A81812F0F900F900F900F900F90DF9154
:10067000CF911F910C949D130E940A21182FEFCF48
:100680000E94332169817A81EDCFFC01262F4081C0
:1006900051816281738184810C941203CF93DF9323
:1006A000EC0160E00E944503BE01DF91CF910C9404
:1006B0001003FF920F931F93CF93DF93E82FF0E087
:1006C000E456FE4FF490C82FC695C695C695D0E067
:1006D000FE01E45DFD4F0491877010E0082E02C01A
:1006E000159507950A94E2F701701127C45EDD4F56
:1006F000FE01C491D0E002C0D595C7958A95E2F776
:10070000C170DD270115110519F081EE0E945819FD
:10071000209719F086EE0E9458198F2D0E94C61955
:10072000CD2B19F086EE0E949E19012B41F081EE2F
:10073000DF91CF911F910F91FF900C949E19DF9143
:10074000CF911F910F91FF900895EF92FF920F9319
:100750001F93CF93DF93EC01162F0AE08881882343
:1007600009F454C0813009F04EC08981813099F478
:100770007E0122E0E20EF11C8A810E94C619E70187
:100780002196812F815050F3EFE9FFE03197F1F787
:1007900000C00000F7CF823041F47E0182E0E80E15
:1007A000F11C8A810E945819EACF833041F47E01FE
:1007B000E2E0EE0EF11C8A810E949E19E0CF8430A7
:1007C00011F02196DDCF2A81229690E080E0AE01E3
:1007D0004F5F5F4F2053330B2A30310548F00197AC
:1007E00078F2EFE9FFE03197F1F700C00000F7CFB2
:1007F000089FB001099F700D1124C901860F971F32
:100800002981EA01E4CF0E945903BACFDF91CF9149
:100810001F910F91FF90EF90089560E00C94A50355
:100820008F929F92AF92BF92CF92DF92EF92FF9200
:100830000F931F936B017C0181E090E0A0E0B0E09A
:100840004C015D0104C0880C991CAA1CBB1C4A9574
:10085000D2F7B501A4014C015D0104C0880C991CBC
:10086000AA1CBB1C2A95D2F7482959296A297B2939
:1008700004C0880F991FAA1FBB1F0A95D2F78A01CF
:100880009B010C211D212E213F210417150726074E
:10089000370789F48C299D29AE29BF29BC01CD01D8
:1008A0001F910F91FF90EF90DF90CF90BF90AF908E
:1008B0009F908F90089580959095A095B0958C21EC
:1008C0009D21AE21BF21EACF0F93382F262F6091B3
:1008D0009503709196038091970390919803042F4C
:1008E000432F0E9410040F910C941A200E9456244A
:1008F0000E947D22811102C00E941A230C94DC0602
:100900000C94DF0608950C94820481E008950C9401
:100910008504CF93C82F0E9483048C2FCF910C9411
:10092000870408950E94461C0E9491042FEF84E3DF
:100930009CE0215080409040E1F700C000000C9402
:1009400043240F931F93CF93DF93EC0161E00E9448
:1009500045038C01BE010E947211882389F1BE01FA
:10096000C8010E940D03882359F1BE01C8010E94ED
:10097000D514882329F1BE01C8010E9416158823C9
:10098000F9F0BE01C8010E9439168823C9F0BE01E2
:10099000C8010E948010882399F08A81882339F049
:1009A00001158CE5180751F00E3D1C4579F0CE017C
:1009B000DF91CF911F910F910C9409030E94920433
:1009C00080E0DF91CF911F910F9108950E941A232B
:1009D000F7CF90E080E008950895FC01EE0FFF1F2F
:1009E000E45CFD4F859194910895CF93DF930E942D
:1009F0009D130E940106EC01811520E5920708F085
:100A000041C0811530E4930708F0B4C0803E9105E1
:100A100018F5803C910508F09DC0883A910570F466
:100A2000853A910508F08EC081309105F9F0009764
:100A3000E9F00497D8F4D0E0C0E018C08F3B9105EE
:100A4000D0F7C85AD0E0CC0FDD1FCC5CDE4F099048
:100A5000D881C02DD4640AC08115904258F4C115C4
:100A600081E0D80718F4C83ED10528F7CE01DF9100
:100A7000CF910895C11590E3D90708F071C0CE0158
:100A80009F706AC0811525E5920758F5811534E5F8
:100A9000930708F09EC0811542E5940750F4C115F4
:100AA00081E5D80708F469C0DC2FCC27C16FD06A74
:100AB000DDCF982F969596959E0123703327C1150B
:100AC000D34508F077C0C1E0D0E002C0CC0FDD1FF5
:100AD0002A95E2F720E2929FC0011124C82BD92B5E
:100AE00067C0C11589E5D807A8F4C11598E5D907ED
:100AF00008F074C0C11526E5D20708F09CCF8C2FF2
:100B00000E949806C82FD0E0DC2FCC27CC27DF71BD
:100B1000D062ACCFC1153AE5D30708F464C0CE016A
:100B200090568115904208F086CF8D2F8F710E94CC
:100B3000980690E0982F882788279F719C012C2B7E
:100B4000E901E6CFC55AD0E0CE59DE4FC881D0E0EA
:100B5000D0648CCF805C91090E94ED04EC0186CFBB
:100B6000CE019927D3FF03C0EC01D86C7FCFEC01F5
:100B7000D06C7CCFDF70D06A79CFCE01E4E096955F
:100B80008795EA95E1F783702C2F2695269523709B
:100B900090E2299F90011124382B8C2F8370C1E0A3
:100BA000D0E002C0CC0FDD1F8A95E2F7C22BD32B19
:100BB000DC685CCFC1E0D0E002C0CC0FDD1F2A951D
:100BC000E2F730E2939FC0011124C82BD92BDA68D9
:100BD0004DCFD82FCC27C46FD06A48CFDC2FCC277D
:100BE000C06FD06A43CF8C2F8F700E94980634E07C
:100BF000D695C7953A95E1F7CF709C2FEC01D06957
:100C000035CF82389105B1F1B0F48133910509F403
:100C100075C048F48932910509F469C08A3291059A
:100C200009F473C008958533910509F459C08933D7
:100C3000910501F10895833E9105A9F138F4803EB4
:100C40009105F9F0823E910549F10895863E91059E
:100C5000A9F1873E9105C9F1843E910519F52091CE
:100C60007F0421FF1FC080917E0484FD14C087EEA5
:100C700090E0089520917E042370A1F080EE90E032
:100C8000089520917E0420FD47C030917F0430FFFD
:100C900009C024FF44C090E080E004C020917E049D
:100CA00022FDF7CF089520917E0422FD3BC03091B4
:100CB0007F0430FDE3CF24FFF5CFEDCF20917E04FC
:100CC00023FFF0CF24FDE7CFD2CF20917E0423FD78
:100CD0002CC030917F0431FFEECF84EE90E0089578
:100CE00020917E0425FFDECF89E290E008952091D7
:100CF0007E0425FFD7CF85E390E0089520917E0400
:100D000026FFD0CF8AE290E0089520917E0426FF4E
:100D1000C9CF81E390E0089589E390E0089583EEE0
:100D200090E0089582EE90E0089586EE90E00895B8
:100D300090917E0492FF06C0282F28712830F9F484
:100D4000877F846093FF06C0282F28712831F1F433
:100D5000877E846120917F0420FF06C0382F387180
:100D60003830D9F4877F816021FF06C0282F287191
:100D70002831D1F4877E816194FD877E0895282FE4
:100D800024712430F9F68B7F8860DCCF282F247102
:100D9000243101F78B7E8861DDCF382F31713130FE
:100DA00019F78E7F8860E0CF282F2171213121F73C
:100DB0008E7E8861E1CF08950C94DB0608950C9433
:100DC000DE06E82FF0E0EF53FC4F80810895089590
:100DD00080EA8A95F1F7089508950E944808809165
:100DE00004018091040195E0811190E09093CC037F
:100DF00085E0891B8093CB03ABE6B1E061E070E056
:100E00008D91E82FE295EF70F0E041A18F709B018A
:100E100001C0220F8A95EAF7922F9095942391A30F
:100E200082A1822B82A381E0A037B80749F7A5E60B
:100E3000B1E061E070E08D91E82FE295EF70F0E0B5
:100E400041A18F709B0101C0220F8A95EAF7922F72
:100E50009095942391A382A1822B82A381E0AB364B
:100E6000B80749F7E7EBF3E0A1ECB3E081EC93E0DE
:100E700011921D928E179F07D9F785E00E94F30704
:100E80000E9476040C945D080E942A088823F9F0D9
:100E90008091CB0390E08F539C4F0E948D0881116D
:100EA00013C08091E0018F5F8093E001863050F0A5
:100EB000E091CB03F0E0EF53FC4F108211821282DD
:100EC000138214820C9480041092E001FBCF809175
:100ED000CC0390E08F539C4F0E94AA080C94EC0620
:100EE0008F929F92AF92BF92CF92DF92EF92FF923A
:100EF0000F931F93CF93DF938BE6A82E81E0B82E3C
:100F000007EB13E0912CCC24C394D12CF5018191F3
:100F10005F01C82FC295CF70D0E099A18F70760184
:100F200001C0EE0C8A95EAF7892F8E2989A38AA140
:100F30008E2C809488218AA30E94E806E5E6F1E0E1
:100F400050E040E020E03191A32FA295AF70B0E0D7
:100F500090968C9190E03F7002C0959587953A9558
:100F6000E2F780FD3CC08C2D042E01C0880F0A944E
:100F7000EAF7282B4F5F5F4F4630510521F789A1D3
:100F8000882289A28AA1E82AEAA2F801808128178A
:100F900041F1208381E0982A0F5F1F4FF0E7AF16E1
:100FA000F1E0BF0609F0B2CF6091CC0370E06F535F
:100FB0007C4F292D45E087EB93E00E94F4070E94C7
:100FC0004407892DDF91CF911F910F91FF90EF90F2
:100FD000DF90CF90BF90AF909F908F90089580E06A
:100FE000C8CF80E0D8CF0895FF920F931F93CF937F
:100FF000DF93F82E092F162FD72FC42F222349F065
:1010000081E08093E3010E94F8239093E2018093B2
:10101000E1018091E3018823A1F08091E1019091A9
:10102000E2010E941024069760F0EF2DF02FA12F0F
:10103000BD2FCE0FDF2FD11DEC17FD0741F410920D
:10104000E301DF91CF911F910F91FF90089581915E
:101050008D93F2CF8091E401811111C08091D8006D
:1010600080618093D8008AE18A95F1F700C0909161
:10107000D900892F817090FF82E08093E40181E0A4
:101080009091E401913009F080E008950C942A08D1
:101090000E94460880930401809104016CE188233A
:1010A00049F080E00E9453090E942A08882321F019
:1010B0000C9464088CE1F6CF08950E942A088111EF
:1010C00002C00C946A08089562E070E085E091E047
:1010D0000C94C51662E070E085E091E00C94CE16A9
:1010E0000E943F0E882361F08CEE91E00E94450E35
:1010F00081E090E00E94A717892B11F40C94420E16
:1011000008958091EB01883039F460E08CEE91E035
:101110000E945D0F1092EB010895CF93DF93D82FBB
:10112000C92F0E94700890E080E00E94A7170097E6
:1011300079F4ED2FFC2FDC01AA51BE4F2C912193A5
:10114000019685309105B9F781E0DF91CF9108953F
:1011500080E0FBCFCF93DF93D82FC92F0E94810867
:10116000ED2FFC2F90E080E02191DC01AA51BE4FD1
:101170002C93019685309105B9F7DF91CF910895B1
:10118000AF92BF92CF92DF92FF920F931F93CF93B4
:10119000DF93362F472FE82FF0E0EA5AFC4F71110A
:1011A0000DC06491762F862FDF91CF911F910F9103
:1011B000FF90DF90CF90BF90AF900895C72FD0E001
:1011C0002491F22E022F10E056E0659FC0011124F9
:1011D000EFEFF0E0BF010E94F72B832F90E0880F24
:1011E000991F35E5369FD001379FB00D11248A1B1A
:1011F0009B0B982F990F980F6F01CC1ADD0AC09E98
:10120000D001C19EB00DD09EB00D11248B2F949FA4
:10121000A0011124452F55276F01C41AD50AC09E7D
:10122000A001C19E500DD09E500D11245F01A91A3E
:10123000B108AC9E6001AD9ED00CBC9ED00C1124B8
:10124000CD2CDD24EC19FD09E09FE001E19FD00DDC
:10125000F09FD00D1124ED2F62307105A1F048F4FC
:101260006115710569F06130710589F0EB2F852FEB
:1012700007C06430710571F088F066307105B1F710
:101280006E2F722F91CFE22F2B2F8D2FF9CFE22FC0
:10129000252FF6CFEB2F822F2D2FF2CF2B2F8F2D37
:1012A000E52FEECF0895E7E1F1E0808361830895B3
:1012B000CF93DF93762FE901682F842F0E94C00817
:1012C000798368838A83DF91CF9108958091CD03DC
:1012D000982F9E7F29F4817082608093CD030895BA
:1012E0008635E8F381708465F8CF88E090E00C944F
:1012F0009D2CCF92DF92EF92FF926B017C010E94B6
:101300006609B701A60188E090E0FF90EF90DF90BA
:10131000CF900C94BB2C6091CD037091CE03809143
:10132000CF039091D0030C947909EDECF3E083E0C6
:10133000808311828FEF828383831482A9E1B3E0DB
:1013400012968C911297836012968C9360817181B2
:10135000828193810C9479098091CD0380FF02C032
:101360008695089580E008958091D103833018F424
:101370008F5F8093D1036091CD037091CE038091F4
:10138000CF039091D0030C9479098091D1038823E5
:1013900019F081508093D1036091CD037091CE03F9
:1013A0008091CF039091D0030C9479098091D1035F
:1013B00008958093D103662351F06091CD0370911D
:1013C000CE038091CF039091D0030C9479090895B6
:1013D00060E00C94D9098091CE0308958091CF03E9
:1013E00008958091D003089570E00C94EF106091FF
:1013F00018018091CD0380FF0AC08091170123E07E
:10140000829FC00111248E529C4F0C94F40980914C
:10141000190190911A0123E0829FF0011124EE52EC
:10142000FC4F891750F71182108212828F5F33961A
:10143000F8CF9091CD0390FF14C0909119012091A5
:101440001A0133E0939FF0011124EE52FC4F9217E2
:1014500010F00C94F7098183608342839F5F339679
:10146000F6CF0895CF93DF9300D00F92CDB7DEB7BC
:101470009091CD0390FF0AC09E012F5F3F4F0E94C5
:1014800058094B8169818A810E94190A0F900F9037
:101490000F90DF91CF910895CF93DF93EC01EC8112
:1014A000F0E0EF5AFD4F4491EDECF3E06281818171
:1014B0000E94320A8C818F5F8C83DF91CF910895D7
:1014C000CF93DF93EC01EDECF3E0438162818C81FB
:1014D0000E94320A8C818F5F8C83DF91CF910895B7
:1014E0000F931F93CF93DF9300D00F92CDB7DEB74A
:1014F0008C018091F40181110AC09E012F5F3F4F42
:101500004FEF6FEF0E9458098A818093F401F80130
:101510006481613069F08091F40140E0662361F0FC
:1015200040E0623011F44091F40180E060E004C0DA
:101530006091F40140E080E00E94190AF801848182
:1015400090E0019663E070E00E940B2C84830F9082
:101550000F900F90DF91CF911F910F910895AF924F
:10156000BF92CF92DF92EF92FF920F931F93CF9390
:10157000DF9300D00F92CDB7DEB7182FF62E042FD1
:10158000E22E9091CD0390FF3AC0E92FE695AE2F61
:10159000B0E0AB58BE4F8C91809319039E7F923080
:1015A000E1F59E012F5F3F4F812F0E9458094B812B
:1015B00069818A810E94190A8091CE03811308C033
:1015C0008091CF038F1104C08091D003801729F040
:1015D00080911B03826080931B031093CE03F092D3
:1015E000CF030093D003EE2051F06091CD037091B2
:1015F000CE038091CF039091D0030E9479090F9080
:101600000F900F90DF91CF911F910F91FF90EF906E
:10161000DF90CF90BF90AF900895823019F4009181
:10162000D003CACF863019F41091CE03C5CF8930CC
:10163000D9F3893109F6E9518E2F8170D82EE695BC
:10164000F0E0EF5AFC4FA590B490C12CBB24609100
:101650001B01C61618F00E94F709AECF2C2D30E002
:10166000A29EC001A39E900DB29E900D112470E029
:101670000E94F72B812FD11013C0860F40911901C2
:10168000420F532F511D9A01220F331F240F351F74
:101690002E523C4F402F6F2D0E945809C394D7CF34
:1016A000861BECCFEDECF3E09181282F4381628122
:1016B0008AE0890F0C94AF0A81E00C94520BEDEC98
:1016C000F3E09181282F4381628186EF890F0C948A
:1016D000AF0A81E00C945F0BEDECF3E0628121E155
:1016E000620F08F46FEF282F438181810C94AF0AB9
:1016F00081E00C946C0BEDECF3E0628121E1621B64
:1017000008F460E0282F438181810C94AF0A81E0C6
:101710000C947B0BEDECF3E0438121E1420F08F4E4
:101720004FEF282F628181810C94AF0A81E00C94E5
:101730008A0BEDECF3E0438121E1421B08F440E029
:10174000282F628181810C94AF0A81E00C94990B5F
:1017500020E00C94AF0AEF92FF921F93CF93DF9398
:10176000EC0110E0EE24EA94F12C60911B011617B5
:1017700070F00E94F7099A818C8190FF27C08F5FDB
:101780008C83DF91CF911F91FF90EF90089520916E
:101790001901422F410F5527551FCA019A01220FE7
:1017A000331F280F391F2E523C4F70E0C7010E9493
:1017B0000B2C962F8C814091D0036091CF03199F01
:1017C000800D11240E9458091F5FCFCF8150D8CFC0
:1017D0008F929F92AF92BF92CF92DF92EF92FF9241
:1017E0000F931F93CF93DF93EC018A81BB24BA94AC
:1017F00080FD02C0BB24B3948C8181110AC081E0BA
:10180000B8122AC080911B0181508093F60181E0BB
:101810008C83A12C48E3942E80911B01A816F8F02C
:101820000E94F7098091F60191E0B91261C081111F
:101830005AC080911B0181508093F6011C82DF9178
:10184000CF911F910F91FF90EF90DF90CF90BF90BD
:10185000AF909F908F9008951092F601D8CF00918D
:101860001901CA2CD12C0C0D1D2D111DC801880F7A
:10187000991F080F191F0E521C4FF8011182108278
:10188000128234E0E32EF12C812C8091F601880D38
:1018900089331CF1692D0E94E92B892F082E000C39
:1018A000990BC816D90691F48091D0038E9DA001A2
:1018B0008F9D500D11245595479555954795980145
:1018C0006091CF038091CE030E9458098B0CF1E008
:1018D000EF1AF108D1F6A3949FCF87FFDFCF909145
:1018E0001B01890FDBCF81508093F601BC82A7CF0B
:1018F00090E0019660911B0170E00E940B2C809398
:10190000F6018C839CCFEF92FF920F931F93CF939E
:10191000DF93EC018C81811109C081E08C831092EE
:10192000F50192E0909316018093150180911901C1
:1019300090911A0123E0829FF0011124EE52FC4F96
:10194000891768F110E003E060911B01161768F138
:101950000E94F709809115012091F501280F20932D
:10196000F50190911601980F90931601191654F4F1
:10197000022E000C330B40911B014150550B2417D4
:10198000350734F0819580931501813009F41C826C
:10199000DF91CF911F910F91FF90EF9008951182E9
:1019A000108212828F5F3396CBCFE12EF12C70E044
:1019B000C7010E940B2C20911901820F482F50E083
:1019C0002091F501022E000C330BE216F306BCF059
:1019D00020911601022E000C330B2E153F057CF0D2
:1019E000809F900111242E523C4F4091D003609172
:1019F000CF038091CE030E9458091F5FA5CFFA0143
:101A0000EE0FFF1FE40FF51FEE52FC4F1182108204
:101A10001282F3CF0F931F93CF93DF938C01FC01BE
:101A20008481958101968170992795838483C0E094
:101A3000D5E580911B01C81730F0DF91CF911F9140
:101A40000F910C94F70920911901422F4C0F552743
:101A5000551FCA019A01220F331F280F391F2E521A
:101A60003C4F8C2F8695F80144815581840F952F2A
:101A7000911D81704091D0036091CF038D9F802D87
:101A800011240E945809CF5FD4CF0F931F93CF9397
:101A9000DF93EC0110E000E090911B01901711061C
:101AA00009F06CF40E94F7098C8190E00196817036
:101AB00099278C83DF91CF911F910F9108952091E9
:101AC0001901A801420F511D9A01220F331F240F43
:101AD000351F2E523C4F4C816091CF038091CE0335
:101AE00096959017110651F04CF0442349F040911F
:101AF000D0030E9458090F5F1F4FCECF4423B9F384
:101B000040E0F7CF8F929F92AF92BF92CF92DF9239
:101B1000EF92FF920F931F93CF93DF93FC01B2805C
:101B2000948081E0848300E015E05BE4A52E8824A6
:101B30008394EE24EA94F12C7BE4C72ED12C80917F
:101B40001B01081770F0DF91CF911F910F91FF904B
:101B5000EF90DF90CF90BF90AF909F908F900C94BC
:101B6000F709C02FD0E01C9FF0011D9FF00D11243C
:101B7000E650FE4F91101CC0138212822091190171
:101B8000CE01820F911D9C01220F331F280F391F98
:101B90002E523C4F1C9FF0011D9FF00D1124E6506A
:101BA000FE4F4281618180810E9458090F5FC7CF3B
:101BB0002381222379F12150238334818A2D821BB2
:101BC000311101C0822F1C9FF0011D9FF00D1124C7
:101BD000E650FE4F9091D003899FC0011124B601B9
:101BE0000E94F72B6283211104C0332311F0148269
:101BF000A38222E02B1510F21C9FF0011D9FF00D17
:101C00001124E650FE4F8091CE0380838091CF0354
:101C10008183B4CF0E94782C823091400CF0AECFFB
:101C200082E08B1530F50E94782CB7010E940B2CB6
:101C30001C9FF0011D9FF00D1124E650FE4F808384
:101C400022E02B15C8F40E94782C2091CF03269512
:101C5000622F70E00E940B2C280F1C9FF0011D9F2B
:101C6000F00D1124E650FE4F21831282A38284825C
:101C700085CF8091CE03DCCF2091CF03EECF809132
:101C80001B03089510921B03089525E0EDECF3E08B
:101C9000DC0101900D922A95E1F720911903309112
:101CA0001A0340911B03FC01258336834783089563
:101CB000E9E1F3E011828281846082830895EDEC92
:101CC000F3E080818E7F80830E94580EE9E1F3E08B
:101CD0008281816082832FEF80E792E021508040F3
:101CE0009040E1F700C000000C94F709EDECF3E040
:101CF00080818E7F808360817181828193810E9447
:101D000079090E94580EE9E1F3E0828181608283C3
:101D10002FEF80E792E0215080409040E1F700C033
:101D200000000C94F7096091CD03669570E04BE0DC
:101D300050E08CE191E00E94882C892B19F481E01D
:101D400080931A030E94F823909313038093120345
:101D500080911B03846080931B0308959091CD03B1
:101D600090FF3AC0917081112DC092609093CD0385
:101D700080911B03816080931B03662351F0609167
:101D8000CD037091CE038091CF039091D0030E9438
:101D900079096091CD03669570E04BE050E08CE1ED
:101DA00091E00E94882C892BA1F00E94580E81E0BE
:101DB000809315034091D0036091CF038091CE03AF
:101DC0000C94A80B8B3210F09465D0CF880F982B11
:101DD000CDCF0E94930EEBCF0895682F9091CD0345
:101DE000969581E0890F8B3208F081E00C94AE0E5D
:101DF00081E00C94ED0E682F9091CD0396958FEFB6
:101E0000890F09F48AE20C94AE0E81E00C94FB0E6B
:101E100061E00C94AE0EEDECF3E080818160808394
:101E200086950C94080F8091CD0380FD0C94760E5E
:101E30000C940B0F60E00C94AE0E8091180381118E
:101E400033C00E947D22811104C00E941A230E9487
:101E500095090E9475096093CD037093CE0380931A
:101E6000CF039093D00380911B03836080931B0367
:101E70006E7F61F40E9495090E9475096093CD03FD
:101E80007093CE038093CF039093D0030E94660992
:101E90000E94580E8091CD0380FF03C086950E945A
:101EA0001A0F81E0809318030895EDECF3E0808130
:101EB0008160808386950C941A0F1F93CF93DF93D4
:101EC000EC01162F8F8180FF0CC0888180FF24C019
:101ED0008091CD0381608093CD03888186950E9497
:101EE000AE0E8F8181FF06C0212F4B816A818981CF
:101EF0000E94AF0A8F8182FF05C08E81882379F00E
:101F00000E94930E8F8183FF03C081E080931503AD
:101F1000DF91CF911F9108950E945F0EE2CF0E9442
:101F2000580EF0CFEF92FF920F931F93CF93DF9352
:101F300080911A03882309F468C080911903E09105
:101F4000CD03E695E81BE0931403823009F064C0EA
:101F5000F0E0E35BFD4FE491CE2FD0E00CE41AE01B
:101F600080911503882389F0109215030E94F823AD
:101F70009E0120953095820F931F909313038093B9
:101F8000120310921703109216038091120390917E
:101F900013030E9410248C179D07B8F18091F9015A
:101FA0008823B1F01092F9018091F7019091F80126
:101FB0000E9410248033954758F00E94F823909394
:101FC000F8018093F70180911B03886080931B03C5
:101FD000E0901603F0901703E0911203F0911303C1
:101FE000CE0FDF1FD0931303C093120382E193E05F
:101FF000F80109958091160390911703892B29F414
:10200000EF2819F081E08093F901DF91CF911F91C2
:102010000F91FF90EF900895863049F4F0E0E65B71
:10202000FD4FE491CE2FD0E000E61AE099CF893041
:1020300051F4E695F0E0E95BFD4FE491CE2FD0E05E
:102040000BEA1BE08DCF8F3051F4E695F0E0EC5BAE
:10205000FD4FE491CE2FD0E008EE1BE081CF85311B
:1020600049F4F0E0EF5BFD4FE491CE2FD0E003E8C0
:102070001CE076CFC8EED3E00AE01DE0883109F419
:102080006FCF833239F4EFE3F2E0C591D49100E7EA
:102090001AE066CFC4EFD1E005E41DE0843209F414
:1020A0005FCFC0EDD7E002E519E0853209F058CFE7
:1020B0008E2F63E00E94DD2BE92FF0E0E45CFD4F02
:1020C000E491CE2FD0E002E81DE04ACFFA01811161
:1020D00001C0FB010994CF93DF93C82FD62F0E9434
:1020E000AC098C1740F00E94AC098D1720F4DF91E9
:1020F000CF910C94F80E8C2FDF91CF910C94080F98
:102100001F93CF93DF93EC01FB011281111110C0DB
:102110000E94C8218272FE01E25CFC45E431F105B7
:1021200008F05BC0EE5BF24D0C941F2C0E94130F65
:10213000812FDF91CF911F91089545E05FE068EF17
:102140007EE00E946610F4CF48EF5EE065E07FE03D
:10215000F8CF49E65BE06CE57BE0F3CF4CE55BE074
:1021600069E67BE0EECF47E85BE068E77BE0E9CF3C
:1021700048E75BE067E87BE0E4CF45EA5BE066E9DF
:102180007BE0DFCF46E95BE065EA7BE0DACF45EC58
:1021900059E064EB79E0D5CF44EB59E065EC79E0A8
:1021A000D0CF81E00E94080FC3CF65E082E00E949B
:1021B0006B10BECF68E086E0FACF6EE089E0F7CF23
:1021C00064E18FE0F4CF67E185E1F1CF88E1EACF08
:1021D00062E289E1ECCF83E2E5CF11E0A9CF269A54
:1021E00045B14F7B55B15064EFB7F8949B01220F76
:1021F000331F260F371F280F391F2817390741F4BF
:10220000EFBF8FE594E00197F1F700C0000008955B
:10221000DC016D91CD0178E055B9000000C067FF89
:1022200045B9660F000000C000C000C045B900C03D
:102230007A9591F7E2CF82E290E00E94952C80326D
:1022400089F483E290E00E94952C873059F484E26F
:1022500090E00E94952C91E0893009F090E0892F60
:102260008170089580E0FCCFCF93C82F6FEF81116C
:1022700060E282E290E00E94A92C6FEFC11167E05A
:1022800083E290E00E94A92C6FEFC11169E084E223
:1022900090E0CF910C94A92C80E00E9434110C9412
:1022A0007722089585E290E00E94952C682F70E0D7
:1022B00090E080E0089585E290E00C94A92C0E94C3
:1022C00051110E941B1181110CC060E070E0CB0124
:1022D0000E945B110E9415130E94011481E00C946E
:1022E00034110895CF93FB01C281CC2309F19C01E5
:1022F00022513F452031310520F582510E941114B1
:10230000C0E08C2FCF91089581E00E94402043E0EF
:1023100062E081E00E946404F3CF81E00E946120CA
:1023200043E062E081E00E946404EBCF82E0F6CFFC
:102330008031FFE59F0789F381319F45B9F3C1E003
:10234000E0CF8031EFE59E07F9F281319F45C9F674
:1023500082E0DBCF2FEFFC0120830895CF93DF9342
:10236000EC0188818138A9F028F4803871F0DF9180
:10237000CF910895823881F08338C9F70E94EB0924
:1023800089830E94EE098A83F2CF0E94F109898332
:10239000EECF0E94AC09FBCF0E94D609F8CFCF93B5
:1023A000DF93EC0188818138E1F028F4803869F00E
:1023B000DF91CF910895823811F18338C9F70E94D7
:1023C000F109482F6A81898108C0D9810E94EE09EC
:1023D000C82F0E94EB094D2F6C2FDF91CF910C94E9
:1023E000A80B89810E941A0F8981811104C0DF9195
:1023F000CF910C945F0EDF91CF910C94550F898192
:10240000DF91CF910C94E809EF92FF920F931F9305
:10241000CF93DF93EC01062FDC01ED91CD01E1506C
:10242000E33108F0BFC0F0E0EA5AF24D0C941F2CE3
:10243000198289E08A83602FCE01DF91CF911F91AD
:102440000F91FF90EF900C9401258981823069F003
:10245000833071F08130D9F40E9404240E94252C2D
:102460006A837B838C839D83E6CF0E945211F6CFD3
:102470007E01B2E0EB0EF11C10E0812F0E94E1061C
:10248000F70181937F011F5F1A30B9F7D4CF602F16
:10249000CE010E94AA11CFCF89818230C1F76A8113
:1024A0007B818C819D810E94252C0E945B11C3CF72
:1024B0004B816A8189810E94E71298278927982792
:1024C0009D838C83B8CF2C813D81322723273227EF
:1024D0004B816A8189810E940013ADCF0E94151340
:1024E000AACF0E94CF11A7CF0E94AE11A4CF0E9405
:1024F0008B09A1CF0E94AA1389839DCF0E94AC13A0
:102500009827892798279A83898395CF6B8170E0D4
:1025100089819A81AE014C5F5F4F98278927982760
:102520000E94AF1388CF6B8170E089819A81AE01E0
:102530004C5F5F4F9827892798270E94D6137BCF3F
:102540000E94011478CF0E94D512D6CF6B8170E023
:1025500089819A81AE014C5F5F4F98278927982720
:102560000E944D1368CF6B8170E089819A81AE0122
:102570004C5F5F4F9827892798270E9473135BCF82
:102580000E944C1158CFCE010E940125FFEF21EE91
:1025900084E0F15020408040E1F700C000000E943C
:1025A000432449CF8FEF888346CF84E0089550E0DD
:1025B000440F551F9CE0699F400D511D112498E761
:1025C000899F400D511D1124CA01839608950F93D0
:1025D0001F93CF93DF930E94D7128C010E94952CFA
:1025E000C82FD0E0DC2FCC27C80101960E94952C83
:1025F0009E01282BC901DF91CF911F910F91089562
:102600000F931F93CF93DF93122F032F0E94D712A4
:10261000EC01602F0E94A92C612FCE010196DF9161
:10262000CF911F910F910C94A92CAF92BF92CF9292
:10263000DF92EF92FF921F93CF93DF938CEAC82E25
:1026400080E0D82ED0E07601C0E014C0F5012591DD
:102650003491412F6C2F8D2F0E94001382E0A80E21
:10266000B11C1F5F163091F78CE0E80EF11CCF5FB4
:10267000CA3019F0570110E0E9CFDF5F88E7C80ED4
:10268000D11CD43001F7DF91CF911F91FF90EF90D3
:10269000DF90CF90BF90AF900895EF92FF920F938D
:1026A0001F93CF93DF93EC018A017C01E60EF71EA6
:1026B000CE018396CE15DF0539F4DF91CF911F91BE
:1026C0000F91FF90EF900895C03E21E0D20740F4B3
:1026D0000E94952CF80180830F5F1F4F2196E8CF51
:1026E000F8011082F9CFCF92DF92EF92FF920F9311
:1026F0001F93CF93DF937C016A018C01060F171F94
:10270000EC01CE018396C017D10749F4DF91CF9138
:102710001F910F91FF90EF90DF90CF900895C03EF2
:1027200021E0D20740F4FE01EE19FF09EC0DFD1D7A
:1027300060810E94A92C2196E4CF462F843038F482
:102740007A3028F4663018F4672F0C94E71290E082
:1027500080E0089580E108958DEF91E00895EF9273
:10276000FF920F931F93CF93DF93EC018A017C01BB
:10277000E60EF71ECE018D5F9D4FCE15DF0539F4B5
:10278000DF91CF911F910F91FF90EF900895CD3F72
:1027900021E0D20740F40E94952CF80180830F5F5E
:1027A0001F4F2196E7CFF8011082F9CFCF92DF9229
:1027B000EF92FF920F931F93CF93DF937C016A01F7
:1027C0008C01060F171FEC01CE018D5F9D4FC017C6
:1027D000D10749F4DF91CF911F910F91FF90EF90B6
:1027E000DF90CF900895CD3F21E0D20740F4FE0165
:1027F000EE19FF09EC0DFD1D60810E94A92C2196A8
:10280000E3CFCF93DF93C3E0D2E060E0CE010E943C
:10281000A92C2196C11584E0D807B9F7DF91CF9193
:102820000895DF92EF92FF920F931F93CF93DF9360
:1028300000D000D0CDB7DEB7F82E8FE08F1540F076
:102840008FEF93E00E94952C03E012E08823C1F003
:102850000F900F900F900F90DF91CF911F910F91DC
:10286000FF90EF90DF900895011584E0180781F341
:10287000C8010E94952C811101C0FA940F5F1F4F6F
:10288000F110F2CF19821A821B821C82DD24D394AC
:1028900078018FEFE81AF80AC8010E94952C898305
:1028A0001A828823A9F29FEF980F933078F48A83D5
:1028B000D9820E5F1F4FC7010E94952C8B838823FE
:1028C00039F2CE0101960E940D04E2CF8701F9CFC3
:1028D0000F931F93CF93DF93C62FD42F022FFC01AA
:1028E00082818823C9F060931E030E94F82390938D
:1028F0001D0380931C0380E28C0F883008F050C0C9
:10290000C77081E001C0880FCA95EAF7DF91CF91C7
:102910001F910F910C94D91910911E03161335C0F5
:1029200080911C0390911D030E941024883C910506
:1029300060F5C0E2CD0F1D17B9F080E2810F88303D
:1029400040F4177081E001C0880F1A95EAF70E94E1
:10295000E019C83048F481E09D2F977001C0880FBE
:102960009A95EAF70E94D919802F0E94C619C8309B
:10297000B8F4D77081E001C0880FDA95EAF7DF91EB
:10298000CF911F910F910C94E01980E28C0F883049
:1029900038F4C77081E001C0880FCA95EAF7EFCF1D
:1029A000DF91CF911F910F9108959C01CB01233F9F
:1029B0004CE5340731F190F4283DFCE53F07E9F0A0
:1029C000293D4CE5340769F1273D3C4579F426E281
:1029D00041EE61EE0E94681480E00895253FFCE519
:1029E0003F07B9F090F0263F3C45B9F0FC018281E9
:1029F0008823D1F010921E03089527E245EE65EE7C
:102A0000E9CF26E241EE60EEE5CF27E245EE64EE47
:102A1000E1CF26E241EE62EEDDCF27E245EE66EE43
:102A2000D9CF28E241E0EBCF81E00895CF93DF9347
:102A3000EC01FB018281882309F419C1C230FCE555
:102A4000DF07C0F1C6319CE5D90730F09E012A5F4F
:102A50003C452930310570F50E94902290937F0407
:102A600080937E04C031ECE5DE0709F4CFC008F0A6
:102A70005BC0C8308CE5D80709F4B6C088F5C4300F
:102A8000ECE5DE0709F4A8C0C0F4C2308CE5D80735
:102A900009F49CC080917E048260C330DC4509F457
:102AA00098C080917E0490917F040E949E220E9493
:102AB000461C80E0DF91CF91089580917E04806173
:102AC000C630ECE5DE0709F484C080917E0488609E
:102AD000C730DC4508F47DC080917E04806279C0F7
:102AE000CC308CE5D80709F489C070F480917E045D
:102AF0008C60CA30ECE5DE0709F46BC008F478C0DE
:102B000080917E048E7F65C0CE308CE5D80709F4B5
:102B100079C080917E048B7FCF30DC4508F459C0AA
:102B200080917E048F7E55C0CB3FECE5DE0709F433
:102B300057C030F5C3318CE5D80709F46FC078F47D
:102B4000C131ECE5DE0709F465C0C231DC4509F0AE
:102B5000A8CF0E94461C80917E048F773AC0C53171
:102B60008CE5D80709F462C008F476C080917F0430
:102B70008160CA3FDC4509F094CF80937F0491CFF8
:102B8000CF3FFCE5DF0709F44DC088F480917F0456
:102B90008D7FCD3F9CE5D90781F380917F048E7FA7
:102BA000CE3FDC4550F380917F048360E6CFC13097
:102BB000FDE5DF0709F459C008F444C080E0C230E5
:102BC000DD4509F06ECF0E941C236BCF80917E04FF
:102BD000816080937E0465CF80917E048460F9CF0C
:102BE00080917F048260C9CF80917E048064F1CFA0
:102BF0000E94461C80917E048068EBCF80917E0409
:102C00008D7FE7CF80917E04877FE3CF80917E0424
:102C10008F7DDFCF80917E048F7BDBCF80917E0420
:102C2000837FD7CF80917F048C7FA7CF80917E0454
:102C300082FB992790F921E0922790FB82F990FB83
:102C400083F9C7CF80917F04982F909591708E7FE4
:102C5000892B90FB81F991CF0E94461C90917E04B4
:102C6000892F97FB87F98058B4CF81E0ACCF81E002
:102C700021CFCF93DF93EB0186319C4511F50E9464
:102C8000C8219A81992399F08A7A91E009F490E019
:102C900090931F03811109C089E20E94A3210E9421
:102CA000142280E0DF91CF91089585E3F6CF8091E3
:102CB0001F03811104C089E20E94AA21F0CF85E39D
:102CC000FBCF81E0EFCF8EE1499B02C08150E1F75D
:102CD000499BFECF0895599880E28A95F1F7599A59
:102CE0000895FC013BE03A95F1F720E090E080E0A8
:102CF00031E040E14A95F1F7880F499B02C08160BD
:102D0000232742E04A95F1F7000040E14A95F1F7A8
:102D10009F5F6913EECF90E19A95F1F799B132E098
:102D20003A95F1F7000040E14A95F1F796959170D8
:102D300092272081920F90830895EF92FF920F9334
:102D40001F93CF93DF930F92CDB7DEB719828C011B
:102D50007C01E60EF11C0E151F0561F481E09981DE
:102D6000911180E00F90DF91CF911F910F91FF9013
:102D7000EF9008950E94631668E0CE0101960E94CC
:102D80007116F80181938F01E6CF9093220380930F
:102D9000210360932003519A599A08959093220336
:102DA00080932103609320035198599AE99AE9E6A8
:102DB000F0E08081837F808308956150770B91E0FC
:102DC00001C0990F6A95EAF720E031E0911108C03F
:102DD000222391F0599A80E28A95F1F75998089543
:102DE000492F482339F0599A232740E24A95F1F7B1
:102DF0009695ECCF5998F9CF5998EDCFFF920F9354
:102E00001F93CF93DF93EC018C01060F111DC017A8
:102E1000D10731F4DF91CF911F910F91FF90089569
:102E2000F9900E946B1668E08F2D0E94DD16EFCF9F
:102E30001F920F920FB60F9211240F931F932F938F
:102E40003F934F935F936F937F938F939F93AF9332
:102E5000BF93EF93FF93CF93DF930F92CDB7DEB77E
:102E600019820E94631667E0CE0101960E947116D6
:102E7000082F069506950695982F92959570202F08
:102E80002570920F292F2370969596958770920F33
:102E9000891344C08981811141C08091200380172A
:102EA000E8F120E12A95F1F7599A519A82E08A9542
:102EB000F1F700C0A8E00A9FC0011124009121038E
:102EC00010912203080F191F5998F8016581662394
:102ED00021F0868197810E94FE160E946B16F0E118
:102EE000FA95F1F759985198599A20E12A95F1F7F6
:102EF000D80112966C911297662331F113968D9139
:102F00009C910E949D16D801ED91FC91882311F0AF
:102F100088E001C082E080830E9463160F90DF91F9
:102F2000CF91FF91EF91BF91AF919F918F917F9141
:102F30006F915F914F913F912F911F910F910F9042
:102F40000FBE0F901F901895ED91FC91E1CF0F935C
:102F50001F93CF93DF9320912003281719060CF4B9
:102F600071C08C0193E0000F111F9A95E1F7C09199
:102F70002103D0912203C00FD11FF894519A599880
:102F800025E02A95F1F70000982F969595708570A9
:102F9000980F892F837096959695980F092B0E940C
:102FA0006B1600C067E0802F0E94DD1680E18A95D5
:102FB000F1F75198599A499B17C087E090E04999D9
:102FC00015C06D81662321F18E819F810E949D161F
:102FD00081111EC0519A599AE881F98182E080835B
:102FE000789482E090E00DC000C0E5CF019771F4C5
:102FF000519A599AE881F98181E08083789481E03F
:1030000090E0DF91CF911F910F91089500C0D7CF2D
:103010000E94631620E22A95F1F75998519A80E1AF
:103020008A95F1F76A81662321F08B819C810E9449
:10303000FE160E946B16E881F9811082789490E068
:1030400080E0DFCF84E090E0DCCF90932803809392
:1030500027030895E0912703F0912803309721F08A
:103060000190F081E02D099480E00895E09127031C
:10307000F0912803309721F00280F381E02D09942C
:10308000089520912503309126032817390771F000
:103090009093260380932503E0912703F091280362
:1030A000309721F00680F781E02D09940895209152
:1030B0002303309124032817390771F090932403D8
:1030C00080932303E0912703F0912803309721F0A8
:1030D0000084F185E02D0994089585B7806885BF47
:1030E00085B7806885BF0895089508950C94741875
:1030F00008950C9478180E946D180E9475180C940D
:1031000076180C942A080E94EF230E94ED060E9474
:103110005F110E946A240E941D0F0C947918AF92CF
:10312000BF92CF92DF92EF92FF920F931F93CF93B4
:10313000DF93CDB7DEB72A970FB6F894DEBF0FBE88
:10314000CDBF0E9470070E948118882309F45FC0D8
:103150008AE2A82E83E0B82E10E000E0C02E802F77
:103160000E94E106E82EF501D1905F01D81609F41E
:1031700048C08091AA0381FD0E94E70680E0FF24F9
:10318000F394DE249D2D9F21B9F18E83CF82EF2011
:1031900081E009F480E088870E94F8238160782F1D
:1031A0009A8789874E815F8168858A850E9429195F
:1031B000F801E65DFC4F8081F826F0820E94920FB4
:1031C0000E942A1890912903891791F10E942A18C8
:1031D000809329032A960FB6F894DEBF0FBECDBFA9
:1031E000DF91CF911F910F91FF90EF90DF90CF90E3
:1031F000BF90AF900C9489048F5FFF0C863009F06C
:10320000C1CF0F5F1F4F0A30110509F0A7CF8FEF15
:1032100089838A831B820E94F8238160782F9D8393
:103220008C8349815A816B818D810E942919C6CF77
:103230002A960FB6F894DEBF0FBECDBFDF91CF91B7
:103240001F910F91FF90EF90DF90CF90BF90AF90C4
:103250000895CF93DF93CDB7DEB72B970FB6F894D1
:10326000DEBF0FBECDBF4F83588769877A878B87B4
:103270001E821D8285E0FE013796DE0111960190C7
:103280000D928A95E1F749815A816B817C818D810C
:103290009E812B960FB6F894DEBF0FBECDBFDF9197
:1032A000CF910C94BC1EFC01808191810C947521FE
:1032B000CF93C82F882309F43FC08CEF8C0F813A3D
:1032C000A0F46C2F80912701909128010E94332354
:1032D000882329F08C2F0E94AA210E9414228C2F6F
:1032E0000E94A321CF910C94142280E28C0F88308D
:1032F00048F4C77081E001C0880FCA95EAF70E94C0
:10330000CB21F0CFEBE5EC0FE33040F4F0E0E253FB
:10331000FE4F808190E0CF910C944118C85AC7317C
:1033200058F4EC2FF0E0EE0FFF1FE056FE4F8081C7
:103330009181CF910C945718CF910895882329F14A
:103340009CEF980F913A20F40E94AA210C94142229
:1033500090E2980F983050F4877091E001C0990F77
:103360008A95EAF7892F0E94D121F0CF9BE5980F2B
:10337000933020F490E080E00C944118885A873113
:1033800020F490E080E00C9457180895CF93C82F54
:103390000E945819C93349F42FEF87EE93E021506A
:1033A00080409040E1F700C000008C2FCF910C943A
:1033B0009E19882321F00E94CB210C941422089599
:1033C000882321F00E94D1210C9414220895BF92E9
:1033D000CF92DF92EF92FF920F931F93CF93DF93E1
:1033E0006C01D62FC72FFC01058102950F70128149
:1033F00011110E94E8210E94C121E82E882391F03A
:103400001123D1F08C2F807F803421F080E28D0F4A
:10341000883090F082E00E945F220E94C12191E0FA
:10342000E82EE926BC2EB2949FE0B922EB2DF0E005
:10343000E759F24D0C941F2CE12CF4CF0C2F0F7098
:10344000C07F11F00295007F1123A9F0002359F0ED
:1034500080E28D0F883010F0D11109C0802F0E94BA
:10346000CB210E9414228D2F0E94581914C0802F46
:103470000E94DB21F6CF8D2F0E949E19002359F068
:1034800080E28D0F883010F0D1112CC0802F0E9467
:10349000D1210E9414222B2D2850330B24303105CA
:1034A00020F40E942A180E948904EE2009F493C196
:1034B0000E94BD2180FD8FC1F60112820E94B721BA
:1034C0000E944020C6010E940C1C0E94B721DF917F
:1034D000CF911F910F91FF90EF90DF90CF90BF9011
:1034E0000C946120802F0E94E121D3CFFC2FFF702C
:1034F000FF2EC07FC03219F0F29480EFF822DD2356
:1035000069F0D13049F1112391F1002351F1F60115
:10351000858180FFA8CF8F70858323C0112381F020
:10352000011106C00E94FB218F290E94D919B3CF37
:103530000130C1F70E94FB218F290E940122ABCFED
:10354000011106C00E940A228F2D0E94E019A3CF0C
:10355000013009F4A0CFF6CF112329F0063008F08E
:103560009ACF8F2DE2CF053008F095CFEDCF002315
:1035700059F3D93349F4FFEF27EE33E0F1502040FF
:103580003040E1F700C000008D2F0E949E1983CFCC
:103590008C2F86958695837069F0813009F07BCFFA
:1035A0008D2F9C2F9370111102C090E080E00E943B
:1035B000571871CF8D2F9C2F9370111102C090E07E
:1035C00080E00E94411867CF8C2F837009F041C0C2
:1035D000111161CF4D2F429546954770440F440F0E
:1035E0000D2F0F7010E030E020E0042E04C0000F1B
:1035F000111F221F331F0A94D2F760E070E0CB0145
:10360000D4FF0FC06FE070E080E090E004C0660F70
:10361000771F881F991F4A95D2F7609570958095FE
:103620009095C695C695C370602B712B822B932BFA
:10363000C23049F058F4C13019F00E94F21F2BCF6C
:103640000E94E01F28CF0E94042025CF0E94DE1F89
:1036500022CF8695112311F08C2F8170882309F4D5
:103660001ACF4D2F429546954770440F440F0D2FAA
:103670000F7010E030E020E0042E04C0000F111F96
:10368000221F331F0A94D2F760E070E0CB01D4FF11
:103690000FC06FE070E080E090E004C0660F771F1D
:1036A000881F991F4A95D2F76095709580959095DF
:1036B000C695C695C370602B712B822B932BC2309D
:1036C00049F058F4C13019F00E94B720E4CE0E94AE
:1036D000A520E1CE0E94C920DECE0E941A20DBCEBA
:1036E000CF70112329F08C2F0E9440208D2F1DCFE9
:1036F0008D2F0E94E0198C2F0E946120CCCED23FEA
:1037000089F160F4D03FC9F0D13F29F1112309F4C8
:1037100042C00111A8CE8C2F8F7121C0D33F39F147
:10372000D43FA1F7112369F1CF718C2F0E94402063
:1037300063E08C2F0E944A22AECE112341F0053067
:1037400008F0A9CE8C2F8F710E948420A4CE063061
:1037500008F0A1CEF7CF8C2F8F71112369F20E9450
:10376000402099CE8C2F8F711123C9F3C5CF11231F
:1037700029F08C2F8F710E942B208DCE0E94262045
:103780008ACE81E00E945F22023008F484CE82E07B
:103790000E945F2280CE002359F0D93309F0F4CE85
:1037A0008FEF97EEE3E081509040E040E1F7EACE02
:1037B0008C2F8F71A1CF4C2F4F706D2FC6010E949F
:1037C000E9040E94561F67CE4C2F4F706D2FC60123
:1037D0000E94EC0460CEDF91CF911F910F91FF907A
:1037E000EF90DF90CF90BF9008950F931F93CF93EA
:1037F000DF93EC01688179818A810E947F218C01AD
:103800000E94DB200E94DD1FB801CE01DF91CF9125
:103810001F910F910C94E719CF93DF93EC018B81EB
:103820009C81892B29F08881998189238F3F59F4C4
:10383000DF91CF910895CE010E94F51BCE01DF915B
:10384000CF910C944E03CE010E94A1048111F3CFBD
:103850000E94C121882361F38A81882349F382E091
:10386000DF91CF910C945F220E94E8210E94F82101
:103870000E94142290E080E00E94411890E080E0D5
:103880000C9457180E94B1210C94341C0E94D8212A
:103890000C94421CE92FE295EF70E250EE3070F488
:1038A000F0E0E758F24D0C941F2C803F19F020F403
:1038B000883E20F481E00895843FE1F380E008959C
:1038C000883EC0F3813FD1F7F5CF93FB882780F97D
:1038D00008950E9475210C944A1CCF93DF9300D069
:1038E00000D00F92CDB7DEB70F900F900F900F90D2
:1038F0000F90DF91CF910895CF93DF9300D000D048
:1039000000D0CDB7DEB726960FB6F894DEBF0FBE57
:10391000CDBFDF91CF9108951F93CF93DF93C091D7
:10392000350316E0809136038C1304C0DF91CF91EC
:103930001F910895D0E01C9FF0011D9FF00D1124F0
:10394000E95CFC4F40815181628173818481958162
:103950000E947C1C2196C770E5CF4091670350916F
:1039600068036091690370916A0380916B03909181
:103970006C030C947C1C1F93CF93DF9380916C039A
:10398000807FA9F480916903882389F080913503B1
:10399000C09136036091670370916803A0916A0338
:1039A000B0916B03D62FD72316E0C81304C0DF9164
:1039B000CF911F91089590E0109711F0DF3F19F417
:1039C00001968770F2CF189F9001199F300D112436
:1039D000F901E95CFC4F41814713F2CF4081461366
:1039E000EFCF42814111ECCF438154814A1B5B0BE5
:1039F000483C510528F780916C038F70806180935B
:103A00006C03F901E45CFC4F80818F7080618083DE
:103A100087E693E00E940C1CDF91CF911F910C94DC
:103A20008C1CAF92BF92CF92DF92EF92FF920F93D6
:103A30001F93CF93DF93CDB7DEB761970FB6F8949E
:103A4000DEBF0FBECDBF8C0185E0F801DE011D9603
:103A500001900D928A95E1F7F80140815181E28051
:103A600087E6C82E83E0D82E60916A0370916B03BD
:103A70006115710509F461C1909167032091680394
:103A8000892F82238F3F09F458C1A380B480F0901E
:103A90006903F501E61BF70BFF2009F4FCC08091D8
:103AA0006C03382F307FE83CF10508F0B2C03111CB
:103AB00079C0FE2C251323C0941321C0E1101FC030
:103AC0008F70806180936C030E94AD1CC6010E94C0
:103AD0000C1C80916C03F80185838F2D61960FB6C5
:103AE000F894DEBF0FBECDBFDF91CF911F910F9134
:103AF000FF90EF90DF90CF90BF90AF900895AB28EC
:103B000029F0842F85238F3F09F033C180E0F82FFF
:103B1000F170DF2E80FF3CC0809135032091360389
:103B200036E0821315C04D875E878D859E850E9485
:103B30007521292F22952F702230F0F0243018F5AE
:103B40009F70F1F0F8019581907FD1F4D12C1EC0C7
:103B500090E0389FF001399FF00D1124E95CFC4F93
:103B60006181651306C06081641303C062816E11B8
:103B70000FC001968770D5CF9F7011F0882331F365
:103B8000805E883018F3C8010E940C1CFD2CA5CF64
:103B9000EE2009F4A2CF80916C03816080936C03C6
:103BA000F12C9BCF251306C0941304C0F801EE201E
:103BB00009F48DC04D875E878D859E850E94691CA6
:103BC000882319F1EE2009F180916C03803270F0A6
:103BD000209167033091680338872F831986BB864D
:103BE000AA868C87CE0107960E940C1C86E0F801FD
:103BF000A7E6B3E001900D928A95E1F70E94BB1C05
:103C00000E94AD1CFF24F39468CFC8010E940C1CD5
:103C1000F9CF311113C07A2DB98AA88A6E2D8989FE
:103C20000E946D1C87E693E00E940C1C86E0F60162
:103C300011928A95E9F70E94AD1CB2CF25130FC0EF
:103C400094130DC0E1100BC0F8018583C8010E94D8
:103C50000C1C86E0F60111928A95E9F73ECF4D875C
:103C60005E878D859E850E94691C882371F2EE20F7
:103C700061F280916C03803208F4B8CF2091670321
:103C8000309168033A8329831B82BD82AC828E8384
:103C9000CE010196A9CFE83CF10508F041C0FE2C09
:103CA000EE2009F4B2CF25132AC0941328C08091C6
:103CB0006C0380FD1BC0982F907FC1F0F8018583B5
:103CC000903F31F0982F907F905F8F70892B858384
:103CD000C8010E940C1C86E0F801A7E6B3E0019041
:103CE0000D928A95E1F70E94AD1CF7CE86E0F801AF
:103CF000A7E6B3E001900D928A95E1F7EECE4D87ED
:103D00005E878D859E850E94691C81116FCF809191
:103D10006C03816080936C03C8010E940C1CDDCE93
:103D20007A2DB98AA88A6E2D89890E946D1C86E039
:103D3000F60111928A95E9F7D6CFEE2009F465CF06
:103D40004D875E878D859E850E94691CF82E88238D
:103D500009F45BCF86E0F801A7E6B3E001900D928D
:103D60008A95E1F787E693E00E9453190E94BB1CF5
:103D7000BACF81E08E25CBCE1F93CF93DF93CDB703
:103D8000DEB72C970FB6F894DEBF0FBECDBF4F83C2
:103D9000588769877A878B879C87CE0107960E9410
:103DA000111D882369F08A859B85892B39F04F8105
:103DB0005885842F85238F3F09F071C016E05FC0BE
:103DC00086E0FE013796DE01119601900D928A95EC
:103DD000E1F78A859B85892B89F388859F818923D3
:103DE0008F3F61F32091360330E0C901019687705F
:103DF0009927409135034817190671F40E94461C13
:103E0000109236031092350386E0E7E6F3E0DF0117
:103E10001D928A95E9F7D2CF96E0929FD001939FA9
:103E2000B00D1124A95CBC4FFE01319601900D929A
:103E30009A95E1F7809336030E948C1CBFCF819F37
:103E4000C0011124895C9C4F0E94111D8823E9F058
:103E5000E09135031E9FF0011124E95CFC4F408185
:103E6000518162817381848195810E947C1C809143
:103E7000350390E0019687709927809335038091F0
:103E80003503909136038913DACF2C960FB6F89448
:103E9000DEBF0FBECDBFDF91CF911F910895698521
:103EA0007A858B859C850E947C1C88CFEF92FF923F
:103EB0000F931F93CF93DF938C01892B81F0F12C0B
:103EC000EE24E394E8012196F8018491843770F49C
:103ED000843008F05FC08130B1F08230A1F1DF9111
:103EE000CF911F910F91FF90EF900895853709F4BE
:103EF0004CC008F43DC09CE7980F903780F78F774F
:103F00000E949E1949C00E5F1F4FFE01849190E2EE
:103F1000980F983060F48770FE2D01C0FF0F8A95CE
:103F2000EAF78F2F0E94EB210E94142202C00E9408
:103F300058198F2D815030F2EFE9FFE03197F1F7FA
:103F400000C00000F7CF0E5F1F4FFE01849190E28A
:103F5000980F983050F48770FE2D01C0FF0F8A959E
:103F6000EAF78F2F0E94F121DFCF0E949E19E1CF47
:103F70000E5F1F4FFE01C491C150D8F28FE99FE040
:103F80000197F1F700C00000F7CF0E5F1F4FFE0151
:103F9000F490CFCF0E9458198E01CBCF08950C9486
:103FA000CE1F0E94CF1F6093990370939A03809352
:103FB0009B0390939C030C94341C08950C94D11F84
:103FC0000F931F930091990310919A0320919B03E3
:103FD00030919C03602B712B822B932B1F910F919F
:103FE0000C94D11F0F931F930091990310919A0382
:103FF00020919B0330919C036023712382239323A0
:104000001F910F910C94D11F0F931F93009199034F
:1040100010919A0320919B0330919C036027712794
:10402000822793271F910F910C94D11F0C94CE1FC0
:104030000C9416200E9418206093950370939603A9
:1040400080939703909398030C94341C60E070E085
:10405000CB010C941A200F931F9341E050E060E0D5
:1040600070E08A019B0104C0000F111F221F331F43
:104070008A95D2F7C901B8011F910F910C941A20AB
:104080000F931F9341E050E060E070E004C0440FE4
:10409000551F661F771F8A95D2F7809195039091DF
:1040A0009603A0919703B09198038A019B01082B76
:1040B000192B2A2B3B2BC901B8011F910F910C948E
:1040C0001A200F931F9341E050E060E070E004C0BD
:1040D000440F551F661F771F8A95D2F7CB01BA018F
:1040E0006095709580959095009195031091960339
:1040F00020919703309198036023712382239323A7
:104100001F910F910C941A200F931F9341E050E0E0
:1041100060E070E004C0440F551F661F771F8A954A
:10412000D2F78091950390919603A0919703B09157
:1041300098038A019B01082719272A273B27C901D1
:10414000B8011F910F910C941A200F931F930091A7
:104150009503109196032091970330919803602B5B
:10416000712B822B932B1F910F910C941A200F937C
:104170001F9300919503109196032091970330911E
:10418000980360237123822393231F910F910C9432
:104190001A200F931F93009195031091960320917D
:1041A00097033091980360277127822793271F91E7
:1041B0000F910C941A200895E92FEE0FE90FEE0FDE
:1041C0008E0F982F977041E001C0440F9A95EAF73F
:1041D00086958695869595E0899FF0011124E3598F
:1041E000FC4F30E020E070E05191DF011197CB01EE
:1041F000022E02C0969587950A94E2F78170819508
:104200008527842385278C932F5F3F4F25303105E9
:1042100059F70895E92FEE0FE90FEE0F8E0F982F43
:10422000977086958695869525E0829FF0011124EA
:10423000E359FC4F50E040E080E0219130E0092E4E
:1042400002C0369527950A94E2F721703327042E91
:1042500001C0220F0A94EAF7822B4F5F5F4F45306F
:10426000510559F70895BF92CF92DF92EF92FF92D6
:104270000F931F93CF93DF938C01C0909503D09041
:104280009603E0909703F0909803809199039091A2
:104290009A03A0919B03B0919C03C82AD92AEA2AC9
:1042A000FB2ACFE1D0E0BC2ED701C6010C2E04C002
:1042B000B695A795979587950A94D2F780FD0EC07D
:1042C000219788F7B12C8B2DDF91CF911F910F9102
:1042D000FF90EF90DF90CF90BF900895B8018C2FA2
:1042E0000E94F504019761F3EECFCF93DF93EC01C9
:1042F0000E943321BE01DF91CF910C94F5041F93EE
:10430000CF93DF93EB0190913403992331F0CB01EC
:10431000DF91CF911F910C947521882379F0CB0107
:104320000E943321182F682FCE010E94DC20BE018D
:10433000812FDF91CF911F910C94F504CB010E9446
:104340000A21182FF4CF682F80912701909128011E
:104350000C946923682F80912701909128010C9477
:104360006B2380912701909128010C946D238091FB
:104370009D03859585958595089580919D0387700A
:10438000089590919D03977081E009F480E008956D
:104390008091A90308959091A903892B8093A90383
:1043A000089580959091A90398239093A903089567
:1043B0001092A90308959091A803892B8093A803D4
:1043C000089580959091A80398239093A803089549
:1043D0001092A80308959091A703892B8093A703B7
:1043E000089580959091A70398239093A70308952B
:1043F0001092A703089580919E03089508950C9448
:10440000FE2190919E03981721F080939E030C94B7
:10441000FF21089580919E03882329F010929E0326
:1044200080E00C94FF210895E0912701F09128018C
:104430008091A9038083E0912701F0912801808178
:104440009091A803892B8083E0912701F0912801A6
:1044500080819091A703892B808390919E0399235B
:1044600081F0E0912701F09128018081892B8083E0
:1044700080912701909128010E94212381110E949F
:104480000A2280912701909128010C9436180895F2
:104490000C94472298E0899F90011124622B60932D
:1044A0009D030E94402080919D038595859585956B
:1044B0000C94482210929D0380E00C944822909125
:1044C0009D038095892380939D03282F277071F485
:1044D000282F082E000C330B9217130639F0859500
:1044E000859585950E9461200C945A2208956FEF5E
:1044F0007FEF90E080E00C94C72C90E080E00E9479
:10450000A32C21E08C3E9E4F09F020E0822F0895DD
:1045100082E090E00C94952C83E090E00C94952C34
:10452000CF9384E090E00E94952CC82F81E290E028
:104530000E94952C982F8C2FCF910895CF93C92F3F
:10454000682F84E090E00E94A92C6C2F81E290E01B
:10455000CF910C94A92CAB01BC018FE090E00C949E
:10456000BB2CAB01BC0183E190E00C94BB2C60E060
:1045700070E0CB010C94B12260E070E0CB010E94AE
:10458000AB220C94B7226CEE7EEF90E080E00E94AC
:10459000C72C60E082E090E00E94A92C60E083E0FC
:1045A00090E00E94A92C1092990310929A03109205
:1045B0009B0310929C0360E084E090E00E94A92C91
:1045C00060E081E290E00E94A92C60E085E090E04C
:1045D0000E94A92C60E086E090E00E94A92C6FEF79
:1045E00087E090E00E94A92C40E050E0BA0188E00A
:1045F00090E00E94BB2C60E08DE090E00E94A92C2E
:1046000040E050E0BA0188E190E00E94BB2C60E0FD
:1046100087E190E00E94A92C40E050E0BA018CE1D3
:1046200090E00E94BB2C60E080E290E00E94A92C08
:104630000C94BC220C94C322682F8EE090E00C9462
:10464000A92C9C012E5F3F4FAC01485F5F4F80E07B
:104650002417350709F40895F90191919F019923D1
:10466000B9F38F5FF5CF662349F0FC0132960896C7
:104670002191261729F0E817F907D1F780E008956E
:1046800081E008959C01FC0132969FEF80E041910A
:10469000461751F09F3F19F4411101C0982F8F5FC9
:1046A0008630A9F79F3F09F40895290F311D97FD22
:1046B0003A95F90162830895FC013296089621919A
:1046C000261303C0DF0111971C92E817F907B9F709
:1046D00008950C9442230C945C23029626E0FC017E
:1046E00011922A95E9F70895089508950C94752379
:1046F0000E94762380918404843049F11092AB03A8
:1047000088E190E020E40FB6F894A89580936000CB
:104710000FBE2093600080E00E9489040E947623EF
:1047200083B7817F846083BF83B7816083BF7894C0
:10473000889583B78E7F83BF0FB6F894A895809134
:104740006000886180936000109260000FBE089541
:104750000895CF930E9474230E9470070E94A8239B
:10476000C0E08C2F0E94E106811105C0CF5FCA30E6
:10477000C1F7CF91089581E0FCCF08950C94BD233B
:104780000E94461C0E942A180E9489040C94BE2391
:104790001F921FB61F9211248F939F93AF93BF93C5
:1047A0008091AB03811113C080917A0490917B04B6
:1047B000A0917C04B0917D044196A11DB11D809310
:1047C0007A0490937B04A0937C04B0937D04BF9102
:1047D000AF919F918F911F901FBE1F90189582E0FF
:1047E00084BD93E095BD9AEF97BD80936E000895C8
:1047F0002FB7F89480917A0490917B04A0917C0467
:10480000B0917D042FBF08952FB7F89460917A047A
:1048100070917B0480917C0490917D042FBF08955A
:104820009C014FB7F89480917A0490917B04A091F9
:104830007C04B0917D044FBF821B930B0895789444
:104840001F921FB61F9211248F939F93AF93BF9314
:1048500080917A0490917B04A0917C04B0917D04B6
:104860000196A11DB11D80937A0490937B04A093BF
:104870007C04B0937D04BF91AF919F918F911F9065
:104880001FBE1F90189587E797E7909301088093C4
:10489000000888E19AE00FB6F894A895809360002C
:1048A0000FBE90936000FFCF0C944C110E947007D4
:1048B0008FE39CE90197F1F700C000000E947007A8
:1048C00080E00E94E10680FF04C00E9454240C9402
:1048D000432408950E947D22811102C00E941A2360
:1048E0000E9488228093AA030E94902290937F04C2
:1048F00080937E040E948C22682F70E090E080E01C
:104900000C94DE1F8091B40308950895CF93DF9334
:1049100000D00F92CDB7DEB790918404943011F59A
:1049200089837B836A839093E9008FEF9091E800FD
:10493000815095FD06C095ED9A95F1F70000811123
:10494000F5CF8091E80085FF0DC050E040E063E0C6
:1049500070E0CE0101960E94FD268091E8008E77DE
:104960008093E8000F900F900F90DF91CF91089502
:10497000CF93DF93EC010E94E026823011F0843067
:1049800031F4BE0184E0DF91CF910C948624DF9155
:10499000CF910895BC0183E00C948624CF93DF93DC
:1049A000EC010E94E026823011F0843039F581E07C
:1049B0008093E9008FEF9091E800815095FD06C04B
:1049C00095ED9A95F1F700008111F5CF8091E800FF
:1049D00085FF14C050E040E068E070E0CE010E9426
:1049E000FD268091E8008E778093E80088E0FE0144
:1049F000ACEAB3E001900D928A95E1F7DF91CF9197
:104A00000895CF93FC01603221F5809184048430B5
:104A100001F5C091E900CF702091EC00922F9170C8
:104A200020FD90E8C92B82E08093E9008091E800A6
:104A300080FF0CC050E040E060E270E0CF010E94D7
:104A4000FD268091E8008E778093E800CF70C093B8
:104A5000E900CF91089580918304811109C00E94DB
:104A6000DC280E9439298091E20084608093E20072
:104A70000895109283040895089508950C94C02316
:104A800042E061EC81E00E94582842E261EC84E05F
:104A90000E94582842E261EC82E00E94582842E2DB
:104AA00060EC83E00C94582880918604833009F4EC
:104AB00061C030F48130D1F1823009F49DC0089595
:104AC0008A3009F489C08B3009F46FC0893009F04D
:104AD00050C080918504813209F04BC080918904D7
:104AE00090918A04009719F0029709F042C08091D2
:104AF000E800877F8093E8008091E80082FF35C05E
:104B00009091F3008091F200029729F48091F100D6
:104B10008B7F813021F48091F1008093B4038091E8
:104B2000E8008B778093E8000C948C2880918504B2
:104B3000813AF9F48091E800877F8093E8008091C2
:104B4000890490918A04892B61F468E08CEA93E0EF
:104B500070E00E949B278091E8008B778093E800AB
:104B6000089560E090E080E0F3CF809184048111AB
:104B7000C3CF089580918504813AD9F78091890443
:104B800090918A04892BA9F78091E800877F809310
:104B9000E8008091E80080FFFCCF80913301809392
:104BA000F1008091E8008E77BDCF8091850481323D
:104BB00001F78091890490918A04892BD1F6809124
:104BC000E800877F8093E8000E948C28809187040A
:104BD000809333010C94461C80918504813249F600
:104BE0008091E800877F8093E8000E948C28809164
:104BF00088048093B503089580918504813A09F073
:104C0000B8CF8091E800877F8093E8008091E8002A
:104C100080FFFCCF8091B503C2CFCDB7DEB7A097A0
:104C20000FB6F894DEBF0FBECDBF84B7877F84BFB9
:104C30000FB6F894A8958091600088618093600019
:104C4000109260000FBE80E890E00FB6F894809359
:104C50006100909361000FBE0E947B180E94DC28C7
:104C60000E9439298091E20084608093E200789468
:104C70000E94C22B0E94831889E291E00E942518AD
:104C800013E080918404853039F10E948F1880915F
:104C900084048430B1F71093E9008091E80082FF2A
:104CA000F0CF8091E80090E085FF09C050E040E03F
:104CB00060E270E0CE0101960E944C2791E0809165
:104CC000E8008B778093E8009923D9F260E2CE0167
:104CD00001960E940412D5CF0E947823809182040D
:104CE000882379F20E94A923882359F20E94E7269B
:104CF000C8CF0C947B26292F33272330310521F18F
:104D000068F42130310509F449C02230310509F435
:104D10004AC090E080E030E020E029C02132310537
:104D200081F122323105A9F76330710590F7FB015B
:104D3000EE0FFF1FEC52FE4F208131816F527E4FEC
:104D4000FB01808190E013C099278130910599F093
:104D5000009741F08230910589F00397D1F6E6E59E
:104D6000F4E002C0EAE7F4E0849190E09F01FA01E8
:104D7000318320830895EAE6F4E0F6CFECE5F4E031
:104D8000F3CF6330710528F6660F771FFB01E652FB
:104D9000FE4F2081318189E090E0E9CF82E190E00F
:104DA00029ED34E0E4CF8BE590E02EE734E0DFCF6F
:104DB00080918404843011F482E0089581E00895A4
:104DC0008091B603811102C00C94D826089580E129
:104DD00089BD82E189BD09B400FEFDCF8091D80074
:104DE0008F7D8093D8008091E00082608093E00006
:104DF0008091E00081FDFCCF0895AF92BF92CF92E9
:104E0000DF92FF920F931F93CF93DF936C01EB011F
:104E10008A010E94AB28F82E811123C001151105CB
:104E200039F0F80180819181C81BD90BC80ED91EB9
:104E3000B12CA12C2097A9F08091E80085FD22C01B
:104E40008091E8008E778093E80001151105A1F0AC
:104E5000F80180819181A80EB91EB182A08285E0FF
:104E6000F82E8F2DDF91CF911F910F91FF90DF9042
:104E7000CF90BF90AF9008950E94AB288823D1F2C5
:104E8000F82EEFCFF60181916F018093F100219709
:104E9000FFEFAF1ABF0ACECFAF92BF92CF92DF9291
:104EA000FF920F931F93CF93DF936C01EB018A0165
:104EB0000E94AB28F82E811123C00115110539F08D
:104EC000F80180819181C81BD90BC80ED91EB12C65
:104ED000A12C2097A9F08091E80085FD22C0809147
:104EE000E8008B778093E80001151105A1F0F80127
:104EF00080819181A80EB91EB182A08285E0F82E32
:104F00008F2DDF91CF911F910F91FF90DF90CF9068
:104F1000BF90AF9008950E94AB288823D1F2F82E5D
:104F2000EFCF8091F100F60181936F012197FFEFA0
:104F3000AF1ABF0ACECFFC0180918B0490918C04F4
:104F400086179707A0F06115710529F49091E80084
:104F50009E779093E80090E06115710551F49111EE
:104F600008C08091E80082FF34C080E00895BC0151
:104F7000F2CF809184048823C1F18530C1F1809102
:104F8000E80083FD30C08091E80082FDEACF809187
:104F9000E80080FFE1CF8091F3002091F200382FEC
:104FA0006115710519F02830310558F091E028306D
:104FB000310509F090E02091E8002E772093E80079
:104FC000CBCF81918093F100615071092F5F3F4FEA
:104FD000E7CF80918404882341F0853041F08091AF
:104FE000E80083FFBECF81E0089582E0089583E06A
:104FF0000895FC0180918B0490918C04861797078B
:10500000A0F06115710529F48091E8008E778093F6
:10501000E80090E06115710551F4911108C080918C
:10502000E80082FF35C080E00895BC01F2CF809196
:1050300084048823C9F18530C9F18091E80083FD9B
:1050400031C08091E80082FDEACF8091E80080FFC6
:10505000E1CF8091F3002091F200382F61157105A6
:1050600019F02830310558F091E02830310509F069
:1050700090E08091E8008E778093E800CBCF849118
:105080008093F1003196615071092F5F3F4FE6CF59
:1050900080918404882341F0853041F08091E800BC
:1050A00083FFBDCF81E0089582E0089583E00895F5
:1050B000982F973028F08F708093E90081E0089551
:1050C0009093E900242F762F50E0981731F07091DB
:1050D000EC002091ED005091F00021FD02C09F5F97
:1050E000E8CF3091EB003E7F3093EB003091ED0044
:1050F0003D7F3093ED003091EB0031603093EB0059
:105100007093EC002093ED005093F0002091EE009E
:1051100027FDE5CF80E008958091850487FF13C0C7
:105120008091E80082FF06C08091E8008B77809331
:10513000E80004C0809184048111F2CF0895809129
:1051400084048823D9F38091E80080FFF8CF809110
:10515000E8008E77ECCF2091E4003091E50095E6F1
:10516000A9012091EC00822F817020FF06C0809160
:10517000E80080FF06C080E008952091E80022FD4D
:105180001AC080918404882389F0853089F0809149
:10519000EB0085FD0FC02091E4003091E50042173F
:1051A0005307F9F29150E1F684E0089582E0089502
:1051B00083E0089581E008950E944A290E945229BF
:1051C000E0EEF0E0808181608083E8EDF0E08081B6
:1051D0008F77808319BCA7EDB0E08C918E7F8C9384
:1051E00080818F7E80831092830408950F931F9394
:1051F000CF93DF930E944A290E945229C8EDD0E044
:1052000088818F77888388818068888388818F7D73
:10521000888319BC10928404109280041092820436
:105220001092810400EE10E0F80180818B7F808372
:1052300088818160888342E060E080E00E94582895
:10524000E1EEF0E080818E7F8083E2EEF0E080810D
:1052500081608083808188608083F80180818E7F77
:105260008083888180618883DF91CF911F910F9126
:105270000895E8EDF0E080818F7E8083E7EDF0E037
:1052800080818160808384E082BF81E08093830499
:105290000C94F628E8EDF0E080818E7F80831092F8
:1052A000E20008951092DA001092E10008951F9232
:1052B0000F920FB60F9211242F933F934F935F934A
:1052C0006F937F938F939F93AF93BF93EF93FF93CE
:1052D0008091E10082FF0BC08091E20082FF07C055
:1052E0008091E1008B7F8093E1000E94C12B80912F
:1052F000DA0080FF19C08091D80080FF15C080912E
:10530000DA008E7F8093DA008091D90080FF96C00A
:1053100080E189BD82E189BD09B400FEFDCF81E055
:10532000809384040E942B258091E10080FF19C0A6
:105330008091E20080FF15C08091E2008E7F809313
:10534000E2008091E20080618093E2008091D800C9
:1053500080628093D80019BC85E0809384040E9409
:105360003D258091E10084FF2BC08091E20084FF05
:1053700027C080E189BD82E189BD89B5982F9170F0
:1053800080FFFBCF8091D8008F7D8093D8008091E3
:10539000E1008F7E8093E1008091E2008F7E809318
:1053A000E2008091E20081608093E20080918004BD
:1053B000882309F449C084E0809384040E943E2538
:1053C0008091E10083FF29C08091E20083FF25C026
:1053D0008091E100877F8093E10082E080938404E4
:1053E000109280048091E1008E7F8093E100809193
:1053F000E2008E7F8093E2008091E20080618093E2
:10540000E20042E060E080E00E9458288091F000D5
:1054100088608093F0000E943C25FF91EF91BF913E
:10542000AF919F918F917F916F915F914F913F913C
:105430002F910F900FBE0F901F90189519BC1092CE
:1054400084040E94392570CF8091E30087FD93E0AA
:1054500090938404B3CF1F920F920FB60F92112432
:105460002F933F934F935F936F937F938F939F936C
:10547000AF93BF93CF93DF93EF93FF93D091E90066
:10548000DF708091EC00C82FC17080FDC0E81092E1
:10549000E9008091F000877F8093F00078940E946B
:1054A0006F2A1092E9008091F00088608093F000EC
:1054B000CD2BCF70C093E900FF91EF91DF91CF9199
:1054C000BF91AF919F918F917F916F915F914F911C
:1054D0003F912F910F900FBE0F901F9018951F9323
:1054E000CF93DF93CDB7DEB7AA970FB6F894DEBFA0
:1054F0000FBECDBF85E894E02091F100FC0121931F
:10550000CF01F4E08D389F07B9F70E9454258091B0
:10551000E80083FF1EC180918504909186049A3033
:1055200008F017C1E92FF0E0E957F24D0C941F2C59
:10553000803899F0823809F00CC1809189048F700D
:10554000873008F006C18093E9008091EB0085FB6D
:10555000882780F91092E90006C08091810490911B
:105560008204911182609091E800977F9093E80007
:105570008093F1001092F1008091E8008E77E5C0F1
:10558000882309F4D3C0823009F0E3C080918704F6
:105590008111D6C0809189048F702FEF280F26309B
:1055A00008F0D7C08093E9002091EB0020FFC8C02D
:1055B000933031F48091EB0080628093EB00C0C0A7
:1055C0009091EB0090619093EB0021E030E001C0FE
:1055D000220F8A95EAF72093EA001092EA00809160
:1055E000EB008860EACF8111B4C0109187041F7767
:1055F0008091E3008078812B8093E3008091E80024
:10560000877F8093E8000E948C288091E80080FFCB
:10561000FCCF8091E30080688093E30082E0111169
:1056200083E08093840495C08058823008F091C054
:1056300080918704909188048C3D23E09207A1F526
:1056400083E08A838AE289834FB7F894DE01139658
:1056500020E03EE051E2E32FF0E050935700E49168
:1056600020FF03C0E295EF703F5FEF708E2F90E058
:10567000EA30C0F0C7968D939D932F5F243159F780
:105680004FBF8091E800877F8093E8006AE270E076
:10569000CE0101960E949B278091E8008B77809332
:1056A000E80057C0C096E7CF6091890470918A04E2
:1056B000AE014F5F5F4F0E947926BC01892B09F430
:1056C00048C09091E800977F9093E80089819A8183
:1056D0000E94F927E1CF8038E1F58091E800877FCB
:1056E0008093E800809180048093F10045CF811180
:1056F00030C090918704923060F58091E800877FF8
:105700008093E800909380040E948C28809180040C
:10571000882311F084E005C08091E30087FDFACF73
:1057200081E0809384040E94402513C08091870407
:10573000813079F481E0933009F080E08093820435
:105740001092E9008091E800877F8093E8000E9432
:105750008C288091E80083FF0AC08091E800877F51
:105760008093E8008091EB0080628093EB00AA9622
:105770000FB6F894DEBF0FBECDBFDF91CF911F9162
:1057800008950895CF93809184048823A1F0C09157
:10579000E900CF709091EC00892F817090FD80E836
:1057A000C82B1092E9008091E80083FD0E946F2AC7
:1057B000CF70C093E900CF910895991B79E004C0A0
:1057C000991F961708F0961B881F7A95C9F7809540
:1057D000089587FB082E062687FD819567FD619554
:1057E0000E94DD2B0EF4919507FC81950895AA1B6C
:1057F000BB1B51E107C0AA1FBB1FA617B70710F0BC
:10580000A61BB70B881F991F5A95A9F780959095ED
:10581000BC01CD01089597FB072E16F4009407D024
:1058200077FD09D00E94F72B07FC05D03EF4909538
:1058300081959F4F0895709561957F4F0895EE0F64
:10584000FF1F0590F491E02D099469279627692799
:1058500078278727782708958F929F92AF92BF92DB
:10586000CF92DF92EF92FF92CF93DF93EC016881AA
:1058700079818A819B81611571058105910521F4EA
:1058800064E279ED8BE597E02DE133EF41E050E004
:105890000E94DD2C49015A019B01AC01A7EAB1E449
:1058A0000E94FC2C6B017C01ACEEB4EFA5019401CD
:1058B0000E940A2DDC01CB018C0D9D1DAE1DBF1D6C
:1058C000B7FF03C00197A109B04888839983AA83D1
:1058D000BB839F77DF91CF91FF90EF90DF90CF90C8
:1058E000BF90AF909F908F9008950E942C2C0895A8
:1058F00080E091E00E942C2C0895B0E0A0E080931D
:10590000000190930101A0930201B0930301089557
:10591000FC014150504030F001900616D1F731970C
:10592000CF010895882799270895F999FECF92BD50
:1059300081BDF89A992780B50895A6E1B0E044E0CA
:1059400050E00C94CF2CA8E1B0E042E050E00C9481
:10595000CF2C262FF999FECF92BD81BDF89A0197E1
:1059600000B4021639F01FBA20BD0FB6F894FA9AA7
:10597000F99A0FBE08950396272F0E94AA2C0E9421
:10598000A92C252F0E94AA2C242F0C94AA2C019616
:10599000272F0E94AA2C0C94A92CDC01CB01FC011E
:1059A000F999FECF06C0F2BDE1BDF89A319600B478
:1059B0000D9241505040B8F70895052E97FB1EF404
:1059C00000940E94F42C57FD07D00E940F2D07FC75
:1059D00003D04EF40C94F42C5095409530952195BD
:1059E0003F4F4F4F5F4F089590958095709561950B
:1059F0007F4F8F4F9F4F08950E94312DA59F900D8F
:105A0000B49F900DA49F800D911D11240895B7FFA0
:105A10000C94FC2C0E94FC2C821B930B0895A1E299
:105A20001A2EAA1BBB1BFD010DC0AA1FBB1FEE1F18
:105A3000FF1FA217B307E407F50720F0A21BB30B63
:105A4000E40BF50B661F771F881F991F1A9469F7DF
:105A500060957095809590959B01AC01BD01CF013B
:105A60000895A29FB001B39FC001A39F700D811D37
:105A70001124911DB29F700D811D1124911D089557
:105A8000F894FFCF96109D10A410A910AE10B3107B
:105A9000B810BD10C210C710CC10D110D510DA103C
:105AA000DD10E010E310E610E810EB1018122512DC
:105AB0004C12581263126E12711274127712C012C5
:105AC000C3127A127E1286129312A012A312A61289
:105AD000B3121E1A1E1A761A761AC81A4B1A4B1AC5
